{
  "contractName": "LoanNFT1",
  "abi": [
    {
      "inputs": [],
      "stateMutability": "nonpayable",
      "type": "constructor"
    },
    {
      "anonymous": false,
      "inputs": [],
      "name": "LoansUpdated",
      "type": "event"
    },
    {
      "anonymous": false,
      "inputs": [
        {
          "indexed": true,
          "internalType": "address",
          "name": "previousOwner",
          "type": "address"
        },
        {
          "indexed": true,
          "internalType": "address",
          "name": "newOwner",
          "type": "address"
        }
      ],
      "name": "OwnershipTransferred",
      "type": "event"
    },
    {
      "anonymous": false,
      "inputs": [
        {
          "indexed": false,
          "internalType": "address",
          "name": "account",
          "type": "address"
        }
      ],
      "name": "Paused",
      "type": "event"
    },
    {
      "anonymous": false,
      "inputs": [
        {
          "indexed": false,
          "internalType": "address",
          "name": "account",
          "type": "address"
        }
      ],
      "name": "Unpaused",
      "type": "event"
    },
    {
      "inputs": [
        {
          "internalType": "uint256",
          "name": "",
          "type": "uint256"
        }
      ],
      "name": "allLoanRequests",
      "outputs": [
        {
          "internalType": "uint256",
          "name": "loanID",
          "type": "uint256"
        },
        {
          "internalType": "address payable",
          "name": "lender",
          "type": "address"
        },
        {
          "internalType": "address payable",
          "name": "borrower",
          "type": "address"
        },
        {
          "internalType": "address",
          "name": "smartContractAddressOfNFT",
          "type": "address"
        },
        {
          "internalType": "uint256",
          "name": "tokenIdNFT",
          "type": "uint256"
        },
        {
          "internalType": "uint256",
          "name": "loanAmount",
          "type": "uint256"
        },
        {
          "internalType": "uint256",
          "name": "interestAmount",
          "type": "uint256"
        },
        {
          "internalType": "uint256",
          "name": "totalTimePeriod",
          "type": "uint256"
        },
        {
          "internalType": "uint256",
          "name": "maxTimePeriod",
          "type": "uint256"
        },
        {
          "internalType": "uint256",
          "name": "endLoanTimeStamp",
          "type": "uint256"
        },
        {
          "internalType": "enum LoanNFT1.Status",
          "name": "status",
          "type": "uint8"
        }
      ],
      "stateMutability": "view",
      "type": "function"
    },
    {
      "inputs": [],
      "name": "manager",
      "outputs": [
        {
          "internalType": "address",
          "name": "",
          "type": "address"
        }
      ],
      "stateMutability": "view",
      "type": "function"
    },
    {
      "inputs": [],
      "name": "owner",
      "outputs": [
        {
          "internalType": "address",
          "name": "",
          "type": "address"
        }
      ],
      "stateMutability": "view",
      "type": "function"
    },
    {
      "inputs": [],
      "name": "paused",
      "outputs": [
        {
          "internalType": "bool",
          "name": "",
          "type": "bool"
        }
      ],
      "stateMutability": "view",
      "type": "function"
    },
    {
      "inputs": [],
      "name": "renounceOwnership",
      "outputs": [],
      "stateMutability": "nonpayable",
      "type": "function"
    },
    {
      "inputs": [],
      "name": "totalLoanRequests",
      "outputs": [
        {
          "internalType": "uint256",
          "name": "",
          "type": "uint256"
        }
      ],
      "stateMutability": "view",
      "type": "function"
    },
    {
      "inputs": [
        {
          "internalType": "address",
          "name": "newOwner",
          "type": "address"
        }
      ],
      "name": "transferOwnership",
      "outputs": [],
      "stateMutability": "nonpayable",
      "type": "function"
    },
    {
      "inputs": [
        {
          "internalType": "address",
          "name": "",
          "type": "address"
        },
        {
          "internalType": "address",
          "name": "",
          "type": "address"
        },
        {
          "internalType": "uint256",
          "name": "",
          "type": "uint256"
        },
        {
          "internalType": "bytes",
          "name": "",
          "type": "bytes"
        }
      ],
      "name": "onERC721Received",
      "outputs": [
        {
          "internalType": "bytes4",
          "name": "",
          "type": "bytes4"
        }
      ],
      "stateMutability": "nonpayable",
      "type": "function"
    },
    {
      "inputs": [],
      "name": "pauseLoans",
      "outputs": [],
      "stateMutability": "nonpayable",
      "type": "function"
    },
    {
      "inputs": [],
      "name": "unPauseLoans",
      "outputs": [],
      "stateMutability": "nonpayable",
      "type": "function"
    },
    {
      "inputs": [
        {
          "internalType": "address",
          "name": "smartContractAddressOfNFT",
          "type": "address"
        },
        {
          "internalType": "uint256",
          "name": "tokenIdNFT",
          "type": "uint256"
        },
        {
          "internalType": "uint256",
          "name": "loanAmount",
          "type": "uint256"
        },
        {
          "internalType": "uint256",
          "name": "interestAmount",
          "type": "uint256"
        },
        {
          "internalType": "uint256",
          "name": "totalTimePeriod",
          "type": "uint256"
        },
        {
          "internalType": "uint256",
          "name": "maxTimePeriod",
          "type": "uint256"
        }
      ],
      "name": "createLoan",
      "outputs": [],
      "stateMutability": "nonpayable",
      "type": "function"
    },
    {
      "inputs": [
        {
          "internalType": "uint256",
          "name": "loanID",
          "type": "uint256"
        }
      ],
      "name": "acceptLoan",
      "outputs": [],
      "stateMutability": "payable",
      "type": "function"
    },
    {
      "inputs": [
        {
          "internalType": "uint256",
          "name": "loanID",
          "type": "uint256"
        }
      ],
      "name": "extendLoan",
      "outputs": [],
      "stateMutability": "payable",
      "type": "function"
    },
    {
      "inputs": [
        {
          "internalType": "uint256",
          "name": "loanID",
          "type": "uint256"
        }
      ],
      "name": "endLoan",
      "outputs": [],
      "stateMutability": "payable",
      "type": "function"
    },
    {
      "inputs": [
        {
          "internalType": "uint256",
          "name": "loanID",
          "type": "uint256"
        }
      ],
      "name": "cancelLoan",
      "outputs": [],
      "stateMutability": "nonpayable",
      "type": "function"
    }
  ],
  "bytecode": "0x608060405234801561001057600080fd5b5061001a33610041565b6000805460ff60a01b19168155600180546001600160a01b03191633179055600255610091565b600080546001600160a01b038381166001600160a01b0319831681178455604051919092169283917f8be0079c531659141344cd1fd0a4f28419497f9722a3daafe3b4186f6b6457e09190a35050565b6117c9806100a06000396000f3fe6080604052600436106100e85760003560e01c80637870860b1161008a578063adfbe22f11610059578063adfbe22f146102eb578063bdbfa3de146102fe578063f2fde38b1461031e578063f9e7d3d11461033e57600080fd5b80637870860b146102925780637ace2ac9146102a55780638da5cb5b146102b8578063908ef646146102d657600080fd5b80635c975abb116100c65780635c975abb14610191578063634609c2146101bb578063715018a614610259578063765d94911461026e57600080fd5b80631079f7af146100ed578063150b7a021461010f578063481c6a7514610159575b600080fd5b3480156100f957600080fd5b5061010d610108366004611477565b610353565b005b34801561011b57600080fd5b5061013b61012a3660046114c3565b630a85bd0160e11b95945050505050565b6040516001600160e01b031990911681526020015b60405180910390f35b34801561016557600080fd5b50600154610179906001600160a01b031681565b6040516001600160a01b039091168152602001610150565b34801561019d57600080fd5b50600054600160a01b900460ff166040519015158152602001610150565b3480156101c757600080fd5b506102426101d6366004611562565b600360208190526000918252604090912080546001820154600283015493830154600484015460058501546006860154600787015460088801546009890154600a9099015497996001600160a01b03978816999088169896909716969495939492939192909160ff168b565b6040516101509b9a99989796959493929190611591565b34801561026557600080fd5b5061010d6106fb565b34801561027a57600080fd5b5061028460025481565b604051908152602001610150565b61010d6102a0366004611562565b610761565b61010d6102b3366004611562565b610ae1565b3480156102c457600080fd5b506000546001600160a01b0316610179565b3480156102e257600080fd5b5061010d610dd9565b61010d6102f9366004611562565b610e0b565b34801561030a57600080fd5b5061010d610319366004611562565b6110f1565b34801561032a57600080fd5b5061010d610339366004611619565b6111e4565b34801561034a57600080fd5b5061010d6112af565b600054600160a01b900460ff16156103865760405162461bcd60e51b815260040161037d90611636565b60405180910390fd5b6228de808211156103f25760405162461bcd60e51b815260206004820152603060248201527f412073696e676c6520706572696f642063616e20686176652061206d6178696d60448201526f3ab69037b31037b7329036b7b73a341760811b606482015260840161037d565b6103fd846002611676565b831061046a5760405162461bcd60e51b815260206004820152603660248201527f496e746572657374206d757374206265206c6f776572207468616e2032202a20604482015275383934b731b4b830b61037b3103a3432903637b0b71760511b606482015260840161037d565b600f8111156104bb5760405162461bcd60e51b815260206004820181905260248201527f4d6178696d756d20696e74657265737420706572696f6473206172652031352e604482015260640161037d565b600081116105175760405162461bcd60e51b8152602060048201526024808201527f4d6178696d756d20696e74657265737420706572696f642063616e6e6f7420626044820152633290181760e11b606482015260840161037d565b60405163020604bf60e21b815260048101869052869030906001600160a01b0383169063081812fc90602401602060405180830381865afa158015610560573d6000803e3d6000fd5b505050506040513d601f19601f820116820180604052508101906105849190611695565b6001600160a01b0316146105e45760405162461bcd60e51b815260206004820152602160248201527f5472616e736665722068617320746f20626520617070726f76656420666972736044820152601d60fa1b606482015260840161037d565b600280546000818152600360208190526040909120918255600180830180546001600160a01b031990811690915583850180543390831617905591830180549092166001600160a01b038c16179091556004820189905560058201889055600682018790556007820186905560088201859055600a8201805460ff191690559154909161067191906112e1565b600255604051632142170760e11b8152336004820152306024820152604481018890526001600160a01b038316906342842e0e90606401600060405180830381600087803b1580156106c257600080fd5b505af11580156106d6573d6000803e3d6000fd5b5050604051600080516020611774833981519152925060009150a15050505050505050565b6000546001600160a01b031633146107555760405162461bcd60e51b815260206004820181905260248201527f4f776e61626c653a2063616c6c6572206973206e6f7420746865206f776e6572604482015260640161037d565b61075f60006112f4565b565b8060025481106107835760405162461bcd60e51b815260040161037d906116b2565b60016000838152600360205260409020600a015460ff1660048111156107ab576107ab61157b565b146108025760405162461bcd60e51b815260206004820152602160248201527f537461747573206973206e6f742041435449564520746f20656e64206c6f616e6044820152601760f91b606482015260840161037d565b6000828152600360205260409020600101546001600160a01b03163314801561083c57506000828152600360205260409020600901544210155b8061086057506000828152600360205260409020600201546001600160a01b031633145b6108a25760405162461bcd60e51b81526020600482015260136024820152722ab730b13632903a379032b732103637b0b71760691b604482015260640161037d565b6000828152600360205260409020600201546001600160a01b03163314156109a15760008281526003602052604090206005015434101561093c5760405162461bcd60e51b815260206004820152602e60248201527f546865207072696e636970616c20616d6f756e74206f6620746865206c6f616e60448201526d103bb0b9903737ba1039b2b73a1760911b606482015260840161037d565b6000828152600360208190526040808320600a8101805460ff1916909317909255600182015460059092015490516001600160a01b03909216926108fc8215029290818181858888f1935050505015801561099b573d6000803e3d6000fd5b506109c6565b6000828152600360205260409020600a0180546004919060ff19166001835b02179055505b60008281526003602081905260409182902090810154600491820154925163095ea7b360e01b8152339281019290925260248201929092526001600160a01b0390911690819063095ea7b390604401600060405180830381600087803b158015610a2f57600080fd5b505af1158015610a43573d6000803e3d6000fd5b5050506000848152600360205260409081902060049081015491516323b872dd60e01b8152309181019190915233602482015260448101919091526001600160a01b03831691506323b872dd90606401600060405180830381600087803b158015610aad57600080fd5b505af1158015610ac1573d6000803e3d6000fd5b5050604051600080516020611774833981519152925060009150a1505050565b806002548110610b035760405162461bcd60e51b815260040161037d906116b2565b600054600160a01b900460ff1615610b2d5760405162461bcd60e51b815260040161037d90611636565b60016000838152600360205260409020600a015460ff166004811115610b5557610b5561157b565b14610ba25760405162461bcd60e51b815260206004820152601d60248201527f537461747573206973206e6f742041435449564520666f72206c6f616e000000604482015260640161037d565b6000828152600360205260409020600201546001600160a01b03163314610c1d5760405162461bcd60e51b815260206004820152602960248201527f4f6e6c792074686520626f72726f7765722063616e2063616c6c207468697320604482015268333ab731ba34b7b71760b91b606482015260840161037d565b600082815260036020526040902060080154610ca15760405162461bcd60e51b815260206004820152603e60248201527f546865206d6178696d756d206e756d626572206f6620657874656e73696f6e7360448201527f20746f20746865206c6f616e20686173206265656e20726561636865642e0000606482015260840161037d565b600082815260036020526040902060060154341015610d205760405162461bcd60e51b815260206004820152603560248201527f4e6f7420656e6f7567682045746865722073656e7420746f207468652066756e60448201527431ba34b7b7103a379032bc3a32b732103637b0b71760591b606482015260840161037d565b600082815260036020526040902060080154610d3e906001906116df565b600083815260036020526040902060088101919091556009810154600790910154610d6991906112e1565b6000838152600360205260408082206009810193909355600183015460069093015490516001600160a01b039093169281156108fc0292818181858888f19350505050158015610dbd573d6000803e3d6000fd5b5060405160008051602061177483398151915290600090a15050565b6001546001600160a01b03163314610e035760405162461bcd60e51b815260040161037d906116f6565b61075f611344565b806002548110610e2d5760405162461bcd60e51b815260040161037d906116b2565b600054600160a01b900460ff1615610e575760405162461bcd60e51b815260040161037d90611636565b6000828152600360205260408120600a015460ff166004811115610e7d57610e7d61157b565b14610eca5760405162461bcd60e51b815260206004820152601f60248201527f537461747573206973206e6f742050454e44494e4720666f72206c6f616e2e00604482015260640161037d565b6000828152600360205260409020600201546001600160a01b0316331415610f5a5760405162461bcd60e51b815260206004820152603760248201527f496e76616c6964206f7065726174696f6e2e20596f752063616e6e6f7420756e60448201527f646572777269746520796f7572206f776e206c6f616e2e000000000000000000606482015260840161037d565b60008281526003602052604081206006810154600590910154610f7d91906116df565b905080341015610fed5760405162461bcd60e51b815260206004820152603560248201527f4e6f7420656e6f7567682045746865722073656e7420746f2066756e6374696f60448201527437103a37903ab73232b93bb934ba32903637b0b71760591b606482015260840161037d565b60008381526003602052604090206008015461100b906001906116df565b60008481526003602052604090206008810191909155600180820180546001600160a01b03191633179055600a8201805460ff19169091179055600701546110549042906112e1565b6000848152600360205260408120600901919091556110806103e861107a8460196113c6565b906113d2565b6000858152600360205260409020600201549091506001600160a01b03166108fc6110ab83856116df565b6040518115909202916000818181858888f193505050501580156110d3573d6000803e3d6000fd5b5060405160008051602061177483398151915290600090a150505050565b8060025481106111135760405162461bcd60e51b815260040161037d906116b2565b6000828152600360205260408120600a015460ff1660048111156111395761113961157b565b1461119b5760405162461bcd60e51b815260206004820152602c60248201527f537461747573206973206e6f742050454e44494e4720746f2063616e63656c2060448201526b1b1bd85b881c995c5d595cdd60a21b606482015260840161037d565b6000828152600360205260409020600201546001600160a01b031633146111c157600080fd5b6000828152600360205260409020600a0180546002919060ff19166001836109c0565b6000546001600160a01b0316331461123e5760405162461bcd60e51b815260206004820181905260248201527f4f776e61626c653a2063616c6c6572206973206e6f7420746865206f776e6572604482015260640161037d565b6001600160a01b0381166112a35760405162461bcd60e51b815260206004820152602660248201527f4f776e61626c653a206e6577206f776e657220697320746865207a65726f206160448201526564647265737360d01b606482015260840161037d565b6112ac816112f4565b50565b6001546001600160a01b031633146112d95760405162461bcd60e51b815260040161037d906116f6565b61075f6113de565b60006112ed8284611739565b9392505050565b600080546001600160a01b038381166001600160a01b0319831681178455604051919092169283917f8be0079c531659141344cd1fd0a4f28419497f9722a3daafe3b4186f6b6457e09190a35050565b600054600160a01b900460ff161561136e5760405162461bcd60e51b815260040161037d90611636565b6000805460ff60a01b1916600160a01b1790557f62e78cea01bee320cd4e420270b5ea74000d11b0c9f74754ebdbfc544b05a2586113a93390565b6040516001600160a01b03909116815260200160405180910390a1565b60006112ed8284611676565b60006112ed8284611751565b600054600160a01b900460ff1661142e5760405162461bcd60e51b815260206004820152601460248201527314185d5cd8589b194e881b9bdd081c185d5cd95960621b604482015260640161037d565b6000805460ff60a01b191690557f5db9ee0a495bf2e6ff9c91a7834c1ba4fdd244a5e8aa4e537bd38aeae4b073aa336113a9565b6001600160a01b03811681146112ac57600080fd5b60008060008060008060c0878903121561149057600080fd5b863561149b81611462565b9860208801359850604088013597606081013597506080810135965060a00135945092505050565b6000806000806000608086880312156114db57600080fd5b85356114e681611462565b945060208601356114f681611462565b935060408601359250606086013567ffffffffffffffff8082111561151a57600080fd5b818801915088601f83011261152e57600080fd5b81358181111561153d57600080fd5b89602082850101111561154f57600080fd5b9699959850939650602001949392505050565b60006020828403121561157457600080fd5b5035919050565b634e487b7160e01b600052602160045260246000fd5b8b81526001600160a01b038b811660208301528a81166040830152891660608201526080810188905260a0810187905260c0810186905260e081018590526101008101849052610120810183905261016081016005831061160257634e487b7160e01b600052602160045260246000fd5b826101408301529c9b505050505050505050505050565b60006020828403121561162b57600080fd5b81356112ed81611462565b60208082526010908201526f14185d5cd8589b194e881c185d5cd95960821b604082015260600190565b634e487b7160e01b600052601160045260246000fd5b600081600019048311821515161561169057611690611660565b500290565b6000602082840312156116a757600080fd5b81516112ed81611462565b6020808252601390820152722637b0b71024a21034b99034b73b30b634b21760691b604082015260600190565b6000828210156116f1576116f1611660565b500390565b60208082526023908201527f4f6e6c79206c656173696e67206d616e616765722063616e2063616c6c20746860408201526234b99760e91b606082015260800190565b6000821982111561174c5761174c611660565b500190565b60008261176e57634e487b7160e01b600052601260045260246000fd5b50049056fe01163e919b1fd75968a143d56990c801b68ce928c77db2aaa2ee00c1561b3768a26469706673582212202ad16e9dcbbd8f3fced3723846fe32f00d8a54fb06fbb9e5c4f79044cf52322564736f6c634300080b0033",
  "immutableReferences": {},
  "source": "pragma solidity ^0.8.11;\n\nimport \"@openzeppelin/contracts/token/ERC721/IERC721.sol\";\nimport \"@openzeppelin/contracts/token/ERC721/IERC721Receiver.sol\";\nimport \"@openzeppelin/contracts/security/Pausable.sol\";\nimport {SafeMath} from \"@openzeppelin/contracts/utils/math/SafeMath.sol\";\nimport \"@openzeppelin/contracts/access/Ownable.sol\";\n\ncontract LoanNFT1 is IERC721Receiver, Ownable,Pausable {\n\n\n    // Internel Logic to remove abstract error\n    function onERC721Received(\n        address,\n        address,\n        uint256,\n        bytes calldata\n    ) external returns (bytes4) {\n        return IERC721Receiver.onERC721Received.selector;\n    }\n\n\n    // Using OpenSource specifications\n\n    event LoansUpdated();\n\n    using SafeMath for uint;\n\n    enum Status { PENDING, ACTIVE, CANCELLED, ENDED, DEFAULTED }\n\n    struct Loan {\n        uint loanID;\n        address payable lender;\n        address payable borrower;\n        address smartContractAddressOfNFT;\n        uint tokenIdNFT;\n        uint loanAmount;\n        uint interestAmount;\n        uint totalTimePeriod;\n        uint maxTimePeriod;\n        uint endLoanTimeStamp;\n        Status status;\n    }\n\n    address public manager;\n\n    uint public totalLoanRequests;\n    mapping(uint => Loan) public allLoanRequests;\n\n    // Added modifiers to secure\n\n    modifier isValidLoanID(uint loanID) {\n        require(\n            loanID < totalLoanRequests,\n            \"Loan ID is invalid.\"\n        );\n        _;\n    }\n\n    modifier onlyManager() { // Modifier\n        require(\n            msg.sender == manager,\n            \"Only leasing manager can call this.\"\n        );\n        _;\n    }\n\n    constructor() {\n        manager = msg.sender;\n        totalLoanRequests = 0;\n    }\n\n    // Saw this implementation to pause/unpause the functions\n\n\n    function pauseLoans() public onlyManager {\n        _pause();\n    }\n\n    function unPauseLoans() public onlyManager {\n        _unpause();\n    }\n\n\n    // Functions for the NFTLOAN\n\n    function createLoan(address smartContractAddressOfNFT,uint tokenIdNFT,uint loanAmount,uint interestAmount,uint totalTimePeriod,uint maxTimePeriod) public whenNotPaused {\n        require(totalTimePeriod <= 31 days, \"A single period can have a maximum of one month.\");\n        require(interestAmount < 2*loanAmount, \"Interest must be lower than 2 * principal of the loan.\");\n        require(maxTimePeriod <= 15, \"Maximum interest periods are 15.\");\n        require(maxTimePeriod > 0, \"Maximum interest period cannot be 0.\");\n\n        IERC721 currentNFT = IERC721(smartContractAddressOfNFT);\n        require(currentNFT.getApproved(tokenIdNFT) == address(this), \"Transfer has to be approved first\");\n\n        Loan storage loanRequest =  allLoanRequests[totalLoanRequests];\n        loanRequest.loanID = totalLoanRequests;\n        loanRequest.lender = payable (address(0x0));\n        loanRequest.borrower = payable(msg.sender);\n        loanRequest.smartContractAddressOfNFT = smartContractAddressOfNFT;\n        loanRequest.tokenIdNFT = tokenIdNFT;\n        loanRequest.loanAmount = loanAmount;\n        loanRequest.interestAmount = interestAmount;\n        loanRequest.totalTimePeriod = totalTimePeriod;\n        loanRequest.maxTimePeriod = maxTimePeriod;\n        loanRequest.status = Status.PENDING;\n        totalLoanRequests = SafeMath.add(totalLoanRequests, 1);\n\n        currentNFT.safeTransferFrom(msg.sender, address(this), tokenIdNFT);\n        emit LoansUpdated();\n    }\n\n\n    function acceptLoan(uint loanID) payable public isValidLoanID(loanID) whenNotPaused {\n        require(allLoanRequests[loanID].status == Status.PENDING, \"Status is not PENDING for loan.\");\n        require(allLoanRequests[loanID].borrower != msg.sender, \"Invalid operation. You cannot underwrite your own loan.\");\n\n        uint sumForLoan = allLoanRequests[loanID].loanAmount - allLoanRequests[loanID].interestAmount;\n        require(msg.value >= sumForLoan, \"Not enough Ether sent to function to underwrite loan.\");\n\n        allLoanRequests[loanID].maxTimePeriod = allLoanRequests[loanID].maxTimePeriod - 1;\n\n        allLoanRequests[loanID].lender = payable(msg.sender);\n        allLoanRequests[loanID].status = Status.ACTIVE;\n        allLoanRequests[loanID].endLoanTimeStamp = SafeMath.add(block.timestamp, allLoanRequests[loanID].totalTimePeriod);\n\n\n        uint ourShare = sumForLoan.mul(25).div(1000); // taking 2.5% to pandora's acc\n        allLoanRequests[loanID].borrower.transfer(sumForLoan - ourShare);\n        emit LoansUpdated();\n\n    }\n\n    function extendLoan(uint loanID) payable public isValidLoanID(loanID) whenNotPaused {\n        require(allLoanRequests[loanID].status == Status.ACTIVE, \"Status is not ACTIVE for loan\");\n        require(allLoanRequests[loanID].borrower == msg.sender, \"Only the borrower can call this function.\");\n        require(allLoanRequests[loanID].maxTimePeriod > 0, \"The maximum number of extensions to the loan has been reached.\");\n        require(msg.value >= allLoanRequests[loanID].interestAmount, \"Not enough Ether sent to the function to extend loan.\");\n\n\n        allLoanRequests[loanID].maxTimePeriod = allLoanRequests[loanID].maxTimePeriod - 1;\n        allLoanRequests[loanID].endLoanTimeStamp = SafeMath.add(allLoanRequests[loanID].endLoanTimeStamp, allLoanRequests[loanID].totalTimePeriod);\n\n        allLoanRequests[loanID].lender.transfer(allLoanRequests[loanID].interestAmount);\n        emit LoansUpdated();\n    }\n\n    function endLoan(uint loanID) payable public isValidLoanID(loanID) {\n        require(allLoanRequests[loanID].status == Status.ACTIVE, \"Status is not ACTIVE to end loan.\");\n        require((msg.sender == allLoanRequests[loanID].lender  &&\n                block.timestamp >= allLoanRequests[loanID].endLoanTimeStamp) || msg.sender == allLoanRequests[loanID].borrower,\n                \"Unable to end loan.\");\n\n        if (msg.sender == allLoanRequests[loanID].borrower) {\n            require(msg.value >= allLoanRequests[loanID].loanAmount, \"The principal amount of the loan was not sent.\");\n            allLoanRequests[loanID].status = Status.ENDED;\n            allLoanRequests[loanID].lender.transfer(allLoanRequests[loanID].loanAmount);\n            \n        } else {\n            allLoanRequests[loanID].status = Status.DEFAULTED;\n        }\n\n        \n        IERC721 currentNFT = IERC721(allLoanRequests[loanID].smartContractAddressOfNFT);\n        currentNFT.approve(msg.sender, allLoanRequests[loanID].tokenIdNFT);\n        currentNFT.transferFrom(address(this), msg.sender, allLoanRequests[loanID].tokenIdNFT);\n        emit LoansUpdated();\n    }\n\n    function cancelLoan(uint loanID) public isValidLoanID(loanID) {\n        require(allLoanRequests[loanID].status == Status.PENDING, \"Status is not PENDING to cancel loan request\");\n        require(msg.sender == allLoanRequests[loanID].borrower);\n\n        allLoanRequests[loanID].status = Status.CANCELLED;\n\n        IERC721 currentNFT = IERC721(allLoanRequests[loanID].smartContractAddressOfNFT);\n        currentNFT.approve(msg.sender, allLoanRequests[loanID].tokenIdNFT);\n        currentNFT.transferFrom(address(this), msg.sender, allLoanRequests[loanID].tokenIdNFT);\n        emit LoansUpdated();\n    }\n}",
  "sourcePath": "D:\\blockchain projects\\Tushar-workgroup-NFTloan\\contracts\\LoanFinal.sol",
  "compiler": {
    "name": "solc",
    "version": "0.8.11+commit.d7f03943.Emscripten.clang"
  },
  "schemaVersion": "3.4.4",
  "updatedAt": "2022-03-13T01:53:26.625Z",
  "devdoc": {
    "kind": "dev",
    "methods": {
      "owner()": {
        "details": "Returns the address of the current owner."
      },
      "paused()": {
        "details": "Returns true if the contract is paused, and false otherwise."
      },
      "renounceOwnership()": {
        "details": "Leaves the contract without owner. It will not be possible to call `onlyOwner` functions anymore. Can only be called by the current owner. NOTE: Renouncing ownership will leave the contract without an owner, thereby removing any functionality that is only available to the owner."
      },
      "transferOwnership(address)": {
        "details": "Transfers ownership of the contract to a new account (`newOwner`). Can only be called by the current owner."
      }
    },
    "version": 1
  },
  "userdoc": {
    "kind": "user",
    "methods": {},
    "version": 1
  }
}