{
  "contractName": "LoanV1NFT",
  "abi": [
    {
      "inputs": [
        {
          "internalType": "address",
          "name": "_lenderAddress",
          "type": "address"
        },
        {
          "internalType": "address",
          "name": "_borrowerAddress",
          "type": "address"
        },
        {
          "internalType": "address",
          "name": "_nftAddress",
          "type": "address"
        },
        {
          "internalType": "uint256",
          "name": "_nftId",
          "type": "uint256"
        },
        {
          "internalType": "uint256",
          "name": "_dueDate",
          "type": "uint256"
        },
        {
          "internalType": "uint256",
          "name": "_rentalPayment",
          "type": "uint256"
        },
        {
          "internalType": "uint256",
          "name": "_collateral",
          "type": "uint256"
        },
        {
          "internalType": "uint256",
          "name": "_collateralPayoutPeriod",
          "type": "uint256"
        },
        {
          "internalType": "uint256",
          "name": "_nullificationTime",
          "type": "uint256"
        }
      ],
      "stateMutability": "nonpayable",
      "type": "constructor"
    },
    {
      "inputs": [],
      "name": "AlreadyDeposited",
      "type": "error"
    },
    {
      "inputs": [],
      "name": "BadTimeBounds",
      "type": "error"
    },
    {
      "inputs": [],
      "name": "InsufficientValue",
      "type": "error"
    },
    {
      "inputs": [],
      "name": "InvalidState",
      "type": "error"
    },
    {
      "inputs": [],
      "name": "NonTokenOwner",
      "type": "error"
    },
    {
      "inputs": [],
      "name": "Unauthorized",
      "type": "error"
    },
    {
      "anonymous": false,
      "inputs": [],
      "name": "NftReturned",
      "type": "event"
    },
    {
      "anonymous": false,
      "inputs": [],
      "name": "PayoutPeriodBegins",
      "type": "event"
    },
    {
      "anonymous": false,
      "inputs": [],
      "name": "PayoutPeriodEnds",
      "type": "event"
    },
    {
      "anonymous": false,
      "inputs": [],
      "name": "RentalStarted",
      "type": "event"
    },
    {
      "inputs": [],
      "name": "borrowerAddress",
      "outputs": [
        {
          "internalType": "address",
          "name": "",
          "type": "address"
        }
      ],
      "stateMutability": "view",
      "type": "function"
    },
    {
      "inputs": [],
      "name": "collateral",
      "outputs": [
        {
          "internalType": "uint256",
          "name": "",
          "type": "uint256"
        }
      ],
      "stateMutability": "view",
      "type": "function"
    },
    {
      "inputs": [],
      "name": "collateralPayoutPeriod",
      "outputs": [
        {
          "internalType": "uint256",
          "name": "",
          "type": "uint256"
        }
      ],
      "stateMutability": "view",
      "type": "function"
    },
    {
      "inputs": [],
      "name": "collectedCollateral",
      "outputs": [
        {
          "internalType": "uint256",
          "name": "",
          "type": "uint256"
        }
      ],
      "stateMutability": "view",
      "type": "function"
    },
    {
      "inputs": [],
      "name": "dueDate",
      "outputs": [
        {
          "internalType": "uint256",
          "name": "",
          "type": "uint256"
        }
      ],
      "stateMutability": "view",
      "type": "function"
    },
    {
      "inputs": [],
      "name": "ethIsDeposited",
      "outputs": [
        {
          "internalType": "bool",
          "name": "",
          "type": "bool"
        }
      ],
      "stateMutability": "view",
      "type": "function"
    },
    {
      "inputs": [],
      "name": "lenderAddress",
      "outputs": [
        {
          "internalType": "address",
          "name": "",
          "type": "address"
        }
      ],
      "stateMutability": "view",
      "type": "function"
    },
    {
      "inputs": [],
      "name": "nftCollection",
      "outputs": [
        {
          "internalType": "contract ERC721",
          "name": "",
          "type": "address"
        }
      ],
      "stateMutability": "view",
      "type": "function"
    },
    {
      "inputs": [],
      "name": "nftId",
      "outputs": [
        {
          "internalType": "uint256",
          "name": "",
          "type": "uint256"
        }
      ],
      "stateMutability": "view",
      "type": "function"
    },
    {
      "inputs": [],
      "name": "nftIsDeposited",
      "outputs": [
        {
          "internalType": "bool",
          "name": "",
          "type": "bool"
        }
      ],
      "stateMutability": "view",
      "type": "function"
    },
    {
      "inputs": [],
      "name": "nullificationTime",
      "outputs": [
        {
          "internalType": "uint256",
          "name": "",
          "type": "uint256"
        }
      ],
      "stateMutability": "view",
      "type": "function"
    },
    {
      "inputs": [],
      "name": "rentalPayment",
      "outputs": [
        {
          "internalType": "uint256",
          "name": "",
          "type": "uint256"
        }
      ],
      "stateMutability": "view",
      "type": "function"
    },
    {
      "inputs": [],
      "name": "rentalStartTime",
      "outputs": [
        {
          "internalType": "uint256",
          "name": "",
          "type": "uint256"
        }
      ],
      "stateMutability": "view",
      "type": "function"
    },
    {
      "inputs": [],
      "name": "depositNft",
      "outputs": [],
      "stateMutability": "payable",
      "type": "function"
    },
    {
      "inputs": [],
      "name": "depositEth",
      "outputs": [],
      "stateMutability": "payable",
      "type": "function"
    },
    {
      "inputs": [],
      "name": "withdrawNft",
      "outputs": [],
      "stateMutability": "payable",
      "type": "function"
    },
    {
      "inputs": [],
      "name": "withdrawEth",
      "outputs": [],
      "stateMutability": "payable",
      "type": "function"
    },
    {
      "inputs": [],
      "name": "returnNft",
      "outputs": [],
      "stateMutability": "nonpayable",
      "type": "function"
    },
    {
      "inputs": [],
      "name": "withdrawCollateral",
      "outputs": [],
      "stateMutability": "nonpayable",
      "type": "function"
    },
    {
      "inputs": [
        {
          "internalType": "address",
          "name": "",
          "type": "address"
        },
        {
          "internalType": "address",
          "name": "",
          "type": "address"
        },
        {
          "internalType": "uint256",
          "name": "",
          "type": "uint256"
        },
        {
          "internalType": "bytes",
          "name": "",
          "type": "bytes"
        }
      ],
      "name": "onERC721Received",
      "outputs": [
        {
          "internalType": "bytes4",
          "name": "",
          "type": "bytes4"
        }
      ],
      "stateMutability": "nonpayable",
      "type": "function"
    }
  ],
  "bytecode": "0x6101a06040523480156200001257600080fd5b506040516200187a3803806200187a833981016040819052620000359162000185565b6040516331a9108f60e11b8152600481018790526001600160a01b03808b169190891690636352211e90602401602060405180830381865afa15801562000080573d6000803e3d6000fd5b505050506040513d601f19601f82011682018060405250810190620000a691906200020a565b6001600160a01b031614620000ce57604051632fd8737960e21b815260040160405180910390fd5b620000da83856200022f565b886001600160a01b0316311015620001055760405163044044a560e21b815260040160405180910390fd5b428510156200012757604051635b5a9d1760e11b815260040160405180910390fd5b6001600160a01b0398891660805296881660a0529490961660c05260e092909252610100526101205261014092909252610160919091526101805262000256565b80516001600160a01b03811681146200018057600080fd5b919050565b60008060008060008060008060006101208a8c031215620001a557600080fd5b620001b08a62000168565b9850620001c060208b0162000168565b9750620001d060408b0162000168565b965060608a0151955060808a0151945060a08a0151935060c08a0151925060e08a015191506101008a015190509295985092959850929598565b6000602082840312156200021d57600080fd5b620002288262000168565b9392505050565b600082198211156200025157634e487b7160e01b600052601160045260246000fd5b500190565b60805160a05160c05160e05161010051610120516101405161016051610180516114406200043a60003960008181610407015281816106ee0152610ffb0152600081816101e101528181610b940152610be20152600081816103cb0152818161054201528181610687015281816108c00152818161091501528181610bbc01528181610c060152610f20015260008181610197015281816106a8015281816108e101528181610936015281816109d901528181610f4101526112010152600081816102aa015281816104ed0152818161058c01528181610b240152610b6901526000818161037d01528181610491015281816107220152818161083401528181610a8701528181610e13015281816110a3015261117801526000818161022a0152818161044001528181610752015281816107e301528181610a3601528181610dc20152818161107201526111270152600081816102de0152818161051f015281816105c7015281816106450152818161089101528181610a6501528181610ce401528181610e7a01528181610ef80152818161102201526111560152600081816102760152818161046f01528181610812015281816109b601528181610c8901528181610d3701528181610df101528181610fbc01526111dd01526114406000f3fe60806040526004361061011f5760003560e01c80638acc6adc116100a0578063c6bc518211610064578063c6bc51821461036b578063ce09ffda1461039f578063d8dfeb45146103b9578063de5fc8ec146103ed578063e433e2cc146103f557600080fd5b80638acc6adc146103005780638ed013a61461032f578063a0ef91df14610337578063ae233e9e1461033f578063b70a72971461035557600080fd5b806359c153be116100e757806359c153be146102035780636588103b1461021857806369d8125514610264578063786716fe146102985780637ba61ea5146102cc57600080fd5b8063150b7a02146101245780632572fd541461016e57806326102bf814610185578063439370b1146101c75780635337bead146101cf575b600080fd5b34801561013057600080fd5b5061015061013f36600461129d565b630a85bd0160e11b95945050505050565b6040516001600160e01b031990911681526020015b60405180910390f35b34801561017a57600080fd5b50610183610429565b005b34801561019157600080fd5b506101b97f000000000000000000000000000000000000000000000000000000000000000081565b604051908152602001610165565b610183610611565b3480156101db57600080fd5b506101b97f000000000000000000000000000000000000000000000000000000000000000081565b34801561020f57600080fd5b50610183610b22565b34801561022457600080fd5b5061024c7f000000000000000000000000000000000000000000000000000000000000000081565b6040516001600160a01b039091168152602001610165565b34801561027057600080fd5b5061024c7f000000000000000000000000000000000000000000000000000000000000000081565b3480156102a457600080fd5b506101b97f000000000000000000000000000000000000000000000000000000000000000081565b3480156102d857600080fd5b5061024c7f000000000000000000000000000000000000000000000000000000000000000081565b34801561030c57600080fd5b5060025461031f90610100900460ff1681565b6040519015158152602001610165565b610183610d2c565b610183610e6f565b34801561034b57600080fd5b506101b960005481565b34801561036157600080fd5b506101b960015481565b34801561037757600080fd5b506101b97f000000000000000000000000000000000000000000000000000000000000000081565b3480156103ab57600080fd5b5060025461031f9060ff1681565b3480156103c557600080fd5b506101b97f000000000000000000000000000000000000000000000000000000000000000081565b610183610f8d565b34801561040157600080fd5b506101b97f000000000000000000000000000000000000000000000000000000000000000081565b604051632142170760e11b81526001600160a01b037f000000000000000000000000000000000000000000000000000000000000000016906342842e0e906104b99033907f0000000000000000000000000000000000000000000000000000000000000000907f00000000000000000000000000000000000000000000000000000000000000009060040161133c565b600060405180830381600087803b1580156104d357600080fd5b505af11580156104e7573d6000803e3d6000fd5b505050507f0000000000000000000000000000000000000000000000000000000000000000421161058a576040516001600160a01b037f000000000000000000000000000000000000000000000000000000000000000016907f000000000000000000000000000000000000000000000000000000000000000080156108fc02916000818181858888f19350505050158015610587573d6000803e3d6000fd5b50565b7f000000000000000000000000000000000000000000000000000000000000000042111561060f576105ba610b22565b6040516001600160a01b037f000000000000000000000000000000000000000000000000000000000000000016904780156108fc02916000818181858888f19350505050158015610587573d6000803e3d6000fd5b565b600254610100900460ff161561063a5760405163d5a8211560e01b815260040160405180910390fd5b336001600160a01b037f00000000000000000000000000000000000000000000000000000000000000001614610682576040516282b42960e81b815260040160405180910390fd5b6106cc7f00000000000000000000000000000000000000000000000000000000000000007f0000000000000000000000000000000000000000000000000000000000000000611376565b3410156106ec5760405163044044a560e21b815260040160405180910390fd5b7f000000000000000000000000000000000000000000000000000000000000000042106108bb576040516331a9108f60e11b81527f0000000000000000000000000000000000000000000000000000000000000000600482015230906001600160a01b037f00000000000000000000000000000000000000000000000000000000000000001690636352211e90602401602060405180830381865afa158015610799573d6000803e3d6000fd5b505050506040513d601f19601f820116820180604052508101906107bd919061138e565b6001600160a01b0316141561088f57604051632142170760e11b81526001600160a01b037f000000000000000000000000000000000000000000000000000000000000000016906342842e0e9061085c9030907f0000000000000000000000000000000000000000000000000000000000000000907f00000000000000000000000000000000000000000000000000000000000000009060040161133c565b600060405180830381600087803b15801561087657600080fd5b505af115801561088a573d6000803e3d6000fd5b505050505b7f00000000000000000000000000000000000000000000000000000000000000006001600160a01b0316ff5b6109057f00000000000000000000000000000000000000000000000000000000000000007f0000000000000000000000000000000000000000000000000000000000000000611376565b34111561098e57336108fc61095a7f00000000000000000000000000000000000000000000000000000000000000007f0000000000000000000000000000000000000000000000000000000000000000611376565b61096490346113b2565b6040518115909202916000818181858888f1935050505015801561098c573d6000803e3d6000fd5b505b60025460ff166109a9576002805461ff001916610100179055565b6040516001600160a01b037f000000000000000000000000000000000000000000000000000000000000000016907f000000000000000000000000000000000000000000000000000000000000000080156108fc02916000818181858888f19350505050158015610a1e573d6000803e3d6000fd5b50604051632142170760e11b81526001600160a01b037f000000000000000000000000000000000000000000000000000000000000000016906342842e0e90610aaf9030907f0000000000000000000000000000000000000000000000000000000000000000907f00000000000000000000000000000000000000000000000000000000000000009060040161133c565b600060405180830381600087803b158015610ac957600080fd5b505af1158015610add573d6000803e3d6000fd5b50506002805461ff00191661010017905550506040517f98db6cf82b62fc4af022f87beb70f45391bdfcd1117ed6b4f5f7dd42e12e95bf90600090a161060f42600055565b7f00000000000000000000000000000000000000000000000000000000000000004211610b625760405163baf3f0f760e01b815260040160405180910390fd5b6000610b8e7f0000000000000000000000000000000000000000000000000000000000000000426113b2565b905060007f00000000000000000000000000000000000000000000000000000000000000008210610be057507f0000000000000000000000000000000000000000000000000000000000000000610c38565b7f0000000000000000000000000000000000000000000000000000000000000000610c2b7f0000000000000000000000000000000000000000000000000000000000000000846113c9565b610c3591906113e8565b90505b600154610c4590826113b2565b90508060016000828254610c599190611376565b9091555050600254610100900460ff168015610c77575060025460ff165b15610cd7576040516001600160a01b037f0000000000000000000000000000000000000000000000000000000000000000169082156108fc029083906000818181858888f19350505050158015610cd2573d6000803e3d6000fd5b505050565b6040516001600160a01b037f000000000000000000000000000000000000000000000000000000000000000016904780156108fc02916000818181858888f19350505050158015610cd2573d6000803e3d6000fd5b336001600160a01b037f00000000000000000000000000000000000000000000000000000000000000001614610d74576040516282b42960e81b815260040160405180910390fd5b60025460ff161580610d8d5750600254610100900460ff165b15610dab5760405163baf3f0f760e01b815260040160405180910390fd5b604051632142170760e11b81526001600160a01b037f000000000000000000000000000000000000000000000000000000000000000016906342842e0e90610e3b9030907f0000000000000000000000000000000000000000000000000000000000000000907f00000000000000000000000000000000000000000000000000000000000000009060040161133c565b600060405180830381600087803b158015610e5557600080fd5b505af1158015610e69573d6000803e3d6000fd5b50505050565b336001600160a01b037f00000000000000000000000000000000000000000000000000000000000000001614610eb7576040516282b42960e81b815260040160405180910390fd5b60025460ff1680610ed05750600254610100900460ff16155b15610eee5760405163baf3f0f760e01b815260040160405180910390fd5b6001600160a01b037f0000000000000000000000000000000000000000000000000000000000000000166108fc610f657f00000000000000000000000000000000000000000000000000000000000000007f0000000000000000000000000000000000000000000000000000000000000000611376565b6040518115909202916000818181858888f19350505050158015610587573d6000803e3d6000fd5b60025460ff1615610fb15760405163d5a8211560e01b815260040160405180910390fd5b336001600160a01b037f00000000000000000000000000000000000000000000000000000000000000001614610ff9576040516282b42960e81b815260040160405180910390fd5b7f0000000000000000000000000000000000000000000000000000000000000000421061104c577f00000000000000000000000000000000000000000000000000000000000000006001600160a01b0316ff5b600254610100900460ff1661111057604051632142170760e11b81526001600160a01b037f000000000000000000000000000000000000000000000000000000000000000016906342842e0e906110cb90339030907f00000000000000000000000000000000000000000000000000000000000000009060040161133c565b600060405180830381600087803b1580156110e557600080fd5b505af11580156110f9573d6000803e3d6000fd5b50506002805460ff191660011790555061060f9050565b604051632142170760e11b81526001600160a01b037f000000000000000000000000000000000000000000000000000000000000000016906342842e0e906111a09033907f0000000000000000000000000000000000000000000000000000000000000000907f00000000000000000000000000000000000000000000000000000000000000009060040161133c565b600060405180830381600087803b1580156111ba57600080fd5b505af11580156111ce573d6000803e3d6000fd5b50506040516001600160a01b037f00000000000000000000000000000000000000000000000000000000000000001692507f000000000000000000000000000000000000000000000000000000000000000080156108fc029250906000818181858888f19350505050158015611248573d6000803e3d6000fd5b506002805460ff191660011790556040517f98db6cf82b62fc4af022f87beb70f45391bdfcd1117ed6b4f5f7dd42e12e95bf90600090a161060f42600055565b6001600160a01b038116811461058757600080fd5b6000806000806000608086880312156112b557600080fd5b85356112c081611288565b945060208601356112d081611288565b935060408601359250606086013567ffffffffffffffff808211156112f457600080fd5b818801915088601f83011261130857600080fd5b81358181111561131757600080fd5b89602082850101111561132957600080fd5b9699959850939650602001949392505050565b6001600160a01b039384168152919092166020820152604081019190915260600190565b634e487b7160e01b600052601160045260246000fd5b6000821982111561138957611389611360565b500190565b6000602082840312156113a057600080fd5b81516113ab81611288565b9392505050565b6000828210156113c4576113c4611360565b500390565b60008160001904831182151516156113e3576113e3611360565b500290565b60008261140557634e487b7160e01b600052601260045260246000fd5b50049056fea264697066735822122051460a9f38fd671b88448f9126083221fe66ae1602282a184c17d55039212c3c64736f6c634300080b0033",
  "immutableReferences": {
    "3703": [
      {
        "length": 32,
        "start": 630
      },
      {
        "length": 32,
        "start": 1135
      },
      {
        "length": 32,
        "start": 2066
      },
      {
        "length": 32,
        "start": 2486
      },
      {
        "length": 32,
        "start": 3209
      },
      {
        "length": 32,
        "start": 3383
      },
      {
        "length": 32,
        "start": 3569
      },
      {
        "length": 32,
        "start": 4028
      },
      {
        "length": 32,
        "start": 4573
      }
    ],
    "3705": [
      {
        "length": 32,
        "start": 734
      },
      {
        "length": 32,
        "start": 1311
      },
      {
        "length": 32,
        "start": 1479
      },
      {
        "length": 32,
        "start": 1605
      },
      {
        "length": 32,
        "start": 2193
      },
      {
        "length": 32,
        "start": 2661
      },
      {
        "length": 32,
        "start": 3300
      },
      {
        "length": 32,
        "start": 3706
      },
      {
        "length": 32,
        "start": 3832
      },
      {
        "length": 32,
        "start": 4130
      },
      {
        "length": 32,
        "start": 4438
      }
    ],
    "3708": [
      {
        "length": 32,
        "start": 554
      },
      {
        "length": 32,
        "start": 1088
      },
      {
        "length": 32,
        "start": 1874
      },
      {
        "length": 32,
        "start": 2019
      },
      {
        "length": 32,
        "start": 2614
      },
      {
        "length": 32,
        "start": 3522
      },
      {
        "length": 32,
        "start": 4210
      },
      {
        "length": 32,
        "start": 4391
      }
    ],
    "3710": [
      {
        "length": 32,
        "start": 893
      },
      {
        "length": 32,
        "start": 1169
      },
      {
        "length": 32,
        "start": 1826
      },
      {
        "length": 32,
        "start": 2100
      },
      {
        "length": 32,
        "start": 2695
      },
      {
        "length": 32,
        "start": 3603
      },
      {
        "length": 32,
        "start": 4259
      },
      {
        "length": 32,
        "start": 4472
      }
    ],
    "3712": [
      {
        "length": 32,
        "start": 682
      },
      {
        "length": 32,
        "start": 1261
      },
      {
        "length": 32,
        "start": 1420
      },
      {
        "length": 32,
        "start": 2852
      },
      {
        "length": 32,
        "start": 2921
      }
    ],
    "3714": [
      {
        "length": 32,
        "start": 407
      },
      {
        "length": 32,
        "start": 1704
      },
      {
        "length": 32,
        "start": 2273
      },
      {
        "length": 32,
        "start": 2358
      },
      {
        "length": 32,
        "start": 2521
      },
      {
        "length": 32,
        "start": 3905
      },
      {
        "length": 32,
        "start": 4609
      }
    ],
    "3716": [
      {
        "length": 32,
        "start": 971
      },
      {
        "length": 32,
        "start": 1346
      },
      {
        "length": 32,
        "start": 1671
      },
      {
        "length": 32,
        "start": 2240
      },
      {
        "length": 32,
        "start": 2325
      },
      {
        "length": 32,
        "start": 3004
      },
      {
        "length": 32,
        "start": 3078
      },
      {
        "length": 32,
        "start": 3872
      }
    ],
    "3718": [
      {
        "length": 32,
        "start": 481
      },
      {
        "length": 32,
        "start": 2964
      },
      {
        "length": 32,
        "start": 3042
      }
    ],
    "3720": [
      {
        "length": 32,
        "start": 1031
      },
      {
        "length": 32,
        "start": 1774
      },
      {
        "length": 32,
        "start": 4091
      }
    ]
  },
  "source": "// One way of implementation \n// Bugs and flaws // Access Specifiers\n\npragma solidity ^0.8.11;\n\n\nimport \"@openzeppelin/contracts/token/ERC721/IERC721.sol\";\nimport \"@openzeppelin/contracts/token/ERC721/ERC721.sol\";\nimport {SafeMath} from \"@openzeppelin/contracts/utils/math/SafeMath.sol\";\nimport \"@openzeppelin/contracts/access/Ownable.sol\";\nimport \"@openzeppelin/contracts/token/ERC721/IERC721Receiver.sol\";\n\ncontract LoanV1NFT {\n\n    address public immutable lenderAddress;\n\n    \n    address public immutable borrowerAddress;\n\n   \n    ERC721 public immutable nftCollection;\n\n    \n    uint256 public immutable nftId;\n\n\n    uint256 public immutable dueDate;\n\n   \n    uint256 public immutable rentalPayment;\n\n   \n    uint256 public immutable collateral;\n\n    \n    uint256 public immutable collateralPayoutPeriod;\n\n   \n    uint256 public immutable nullificationTime;\n\n   \n    uint256 public rentalStartTime;\n\n  \n    uint256 public collectedCollateral;\n\n    \n    bool public nftIsDeposited;\n\n    \n    bool public ethIsDeposited;\n\n   \n    event RentalStarted();\n    event NftReturned();\n    event PayoutPeriodBegins();\n    event PayoutPeriodEnds();\n\n  \n    error InsufficientValue();\n    error Unauthorized();\n    error InvalidState();\n    error BadTimeBounds();\n    error AlreadyDeposited();\n    error NonTokenOwner();\n\n   \n    constructor(\n        address _lenderAddress,\n        address _borrowerAddress,\n        address _nftAddress,\n        uint256 _nftId,\n        uint256 _dueDate,\n        uint256 _rentalPayment,\n        uint256 _collateral,\n        uint256 _collateralPayoutPeriod,\n        uint256 _nullificationTime\n    ) {\n\n        if (ERC721(_nftAddress).ownerOf(_nftId) != _lenderAddress) revert NonTokenOwner();\n\n        \n        if (_borrowerAddress.balance < _rentalPayment + _collateral) revert InsufficientValue();\n\n        \n        if (_dueDate < block.timestamp) revert BadTimeBounds();\n        \n        lenderAddress = payable(_lenderAddress);\n        borrowerAddress = payable(_borrowerAddress);\n        nftCollection = ERC721(_nftAddress);\n        nftId = _nftId;\n        dueDate = _dueDate;\n        rentalPayment = _rentalPayment;\n        collateral = _collateral;\n        collateralPayoutPeriod = _collateralPayoutPeriod;\n        nullificationTime = _nullificationTime;\n    }\n\n  \n    function depositNft() external payable {\n       \n        if (nftIsDeposited) revert AlreadyDeposited();\n\n       \n        if (msg.sender != lenderAddress) revert Unauthorized();\n\n        \n        if (block.timestamp >= nullificationTime) {\n            selfdestruct(payable(borrowerAddress));\n        }\n\n        \n        if (!ethIsDeposited) {\n            nftCollection.safeTransferFrom(msg.sender, address(this), nftId);\n            nftIsDeposited = true;\n        } else {\n            nftCollection.safeTransferFrom(msg.sender, borrowerAddress, nftId);\n          \n            payable(lenderAddress).transfer(rentalPayment);\n            nftIsDeposited = true;\n            emit RentalStarted();\n            _beginRental();\n        }\n    }\n\n \n    function depositEth() external payable {\n        \n        if (ethIsDeposited) revert AlreadyDeposited();\n\n        \n        if (msg.sender != borrowerAddress) revert Unauthorized();\n\n        if (msg.value < rentalPayment + collateral) revert InsufficientValue();\n\n        \n        if (block.timestamp >= nullificationTime) {\n            if (nftCollection.ownerOf(nftId) == address(this)) {\n                nftCollection.safeTransferFrom(address(this), lenderAddress, nftId);\n            }\n            selfdestruct(payable(borrowerAddress));\n        }\n\n        \n        if (msg.value > rentalPayment + collateral) {\n            payable(msg.sender).transfer(msg.value - (rentalPayment + collateral));\n        }\n\n        \n        if (!nftIsDeposited) {\n            \n            ethIsDeposited = true;        \n        } else { \n            \n            payable(lenderAddress).transfer(rentalPayment);\n            \n            nftCollection.safeTransferFrom(address(this), borrowerAddress, nftId);\n            ethIsDeposited = true;\n            emit RentalStarted();\n            _beginRental();\n        }\n    }\n\n    \n    function withdrawNft() external payable {\n        \n        if (msg.sender != lenderAddress) revert Unauthorized();\n\n        \n        if (!nftIsDeposited || ethIsDeposited) revert InvalidState();\n\n        \n        nftCollection.safeTransferFrom(address(this), lenderAddress, nftId);\n    }\n\n    \n    function withdrawEth() external payable {\n       \n        if (msg.sender != borrowerAddress) revert Unauthorized();\n\n        \n        if (nftIsDeposited || !ethIsDeposited) revert InvalidState();\n\n        \n        payable(borrowerAddress).transfer(rentalPayment + collateral);\n    }\n\n    \n    function returnNft() external {\n        \n        nftCollection.safeTransferFrom(msg.sender, lenderAddress, nftId);\n\n        \n        if (block.timestamp <= dueDate) {\n            \n            payable(borrowerAddress).transfer(collateral);\n        }\n        \n        else if (block.timestamp > dueDate) {\n            \n            withdrawCollateral();\n            \n            payable(borrowerAddress).transfer(address(this).balance);\n        }\n    }\n\n    \n    function withdrawCollateral() public {\n        \n        if (block.timestamp <= dueDate) revert InvalidState();\n\n        uint256 tardiness = block.timestamp - dueDate;\n        uint256 payableAmount;\n        if (tardiness >= collateralPayoutPeriod) {\n            payableAmount = collateral;\n        } else {\n            payableAmount = (tardiness * collateral) / collateralPayoutPeriod;\n        }\n\n        \n        payableAmount -= collectedCollateral;\n\n        \n        collectedCollateral += payableAmount;\n\n        if(ethIsDeposited && nftIsDeposited) {\n         \n            payable(lenderAddress).transfer(payableAmount);\n        } else {\n           \n            payable(borrowerAddress).transfer(address(this).balance);\n        }\n    }\n\n    \n    function _beginRental() internal {\n        rentalStartTime = block.timestamp;\n    }\n\n    function onERC721Received(\n        address,\n        address,\n        uint256,\n        bytes calldata\n    ) external returns (bytes4) {\n        return IERC721Receiver.onERC721Received.selector;\n    }\n}",
  "sourcePath": "D:\\blockchain projects\\Tushar-workgroup-NFTloan\\contracts\\LoanV1.sol",
  "compiler": {
    "name": "solc",
    "version": "0.8.11+commit.d7f03943.Emscripten.clang"
  },
  "schemaVersion": "3.4.4",
  "updatedAt": "2022-03-13T01:53:26.637Z",
  "devdoc": {
    "kind": "dev",
    "methods": {},
    "version": 1
  },
  "userdoc": {
    "kind": "user",
    "methods": {},
    "version": 1
  }
}