{
  "contractName": "LoanNFT",
  "abi": [
    {
      "inputs": [],
      "stateMutability": "nonpayable",
      "type": "constructor"
    },
    {
      "anonymous": false,
      "inputs": [
        {
          "indexed": false,
          "internalType": "address",
          "name": "from",
          "type": "address"
        },
        {
          "indexed": false,
          "internalType": "uint256",
          "name": "loanId",
          "type": "uint256"
        },
        {
          "indexed": false,
          "internalType": "uint256",
          "name": "loanAmount",
          "type": "uint256"
        },
        {
          "indexed": false,
          "internalType": "uint256",
          "name": "interestAmount",
          "type": "uint256"
        },
        {
          "indexed": false,
          "internalType": "uint256",
          "name": "endLoanTimeStamp",
          "type": "uint256"
        },
        {
          "indexed": false,
          "internalType": "enum LoanNFT.Status",
          "name": "status",
          "type": "uint8"
        }
      ],
      "name": "LoanDataOnAccept",
      "type": "event"
    },
    {
      "anonymous": false,
      "inputs": [
        {
          "indexed": false,
          "internalType": "uint256",
          "name": "loanId",
          "type": "uint256"
        },
        {
          "indexed": false,
          "internalType": "enum LoanNFT.Status",
          "name": "status",
          "type": "uint8"
        }
      ],
      "name": "LoanDataOnCancel",
      "type": "event"
    },
    {
      "anonymous": false,
      "inputs": [
        {
          "indexed": false,
          "internalType": "address",
          "name": "from",
          "type": "address"
        },
        {
          "indexed": false,
          "internalType": "uint256",
          "name": "loanId",
          "type": "uint256"
        },
        {
          "indexed": false,
          "internalType": "uint256",
          "name": "loanAmount",
          "type": "uint256"
        },
        {
          "indexed": false,
          "internalType": "uint256",
          "name": "interestAmount",
          "type": "uint256"
        },
        {
          "indexed": false,
          "internalType": "uint256",
          "name": "totalTime",
          "type": "uint256"
        },
        {
          "indexed": false,
          "internalType": "uint256",
          "name": "extendTimePeriod",
          "type": "uint256"
        },
        {
          "indexed": false,
          "internalType": "enum LoanNFT.Status",
          "name": "status",
          "type": "uint8"
        }
      ],
      "name": "LoanDataOnCreate",
      "type": "event"
    },
    {
      "anonymous": false,
      "inputs": [
        {
          "indexed": false,
          "internalType": "uint256",
          "name": "loanId",
          "type": "uint256"
        },
        {
          "indexed": false,
          "internalType": "enum LoanNFT.Status",
          "name": "status",
          "type": "uint8"
        }
      ],
      "name": "LoanDataOnEnd",
      "type": "event"
    },
    {
      "anonymous": false,
      "inputs": [
        {
          "indexed": false,
          "internalType": "uint256",
          "name": "loanId",
          "type": "uint256"
        },
        {
          "indexed": false,
          "internalType": "uint256",
          "name": "endLoanTimeStamp",
          "type": "uint256"
        },
        {
          "indexed": false,
          "internalType": "enum LoanNFT.Status",
          "name": "status",
          "type": "uint8"
        }
      ],
      "name": "LoanDataOnExtend",
      "type": "event"
    },
    {
      "anonymous": false,
      "inputs": [
        {
          "indexed": true,
          "internalType": "address",
          "name": "previousOwner",
          "type": "address"
        },
        {
          "indexed": true,
          "internalType": "address",
          "name": "newOwner",
          "type": "address"
        }
      ],
      "name": "OwnershipTransferred",
      "type": "event"
    },
    {
      "anonymous": false,
      "inputs": [
        {
          "indexed": false,
          "internalType": "address",
          "name": "account",
          "type": "address"
        }
      ],
      "name": "Paused",
      "type": "event"
    },
    {
      "anonymous": false,
      "inputs": [
        {
          "indexed": false,
          "internalType": "address",
          "name": "account",
          "type": "address"
        }
      ],
      "name": "Unpaused",
      "type": "event"
    },
    {
      "inputs": [
        {
          "internalType": "uint256",
          "name": "",
          "type": "uint256"
        }
      ],
      "name": "allLoanRequests",
      "outputs": [
        {
          "internalType": "uint256",
          "name": "loanID",
          "type": "uint256"
        },
        {
          "internalType": "address payable",
          "name": "lender",
          "type": "address"
        },
        {
          "internalType": "address payable",
          "name": "borrower",
          "type": "address"
        },
        {
          "internalType": "address",
          "name": "smartContractAddressOfNFT",
          "type": "address"
        },
        {
          "internalType": "uint256",
          "name": "tokenIdNFT",
          "type": "uint256"
        },
        {
          "internalType": "uint256",
          "name": "loanAmount",
          "type": "uint256"
        },
        {
          "internalType": "uint256",
          "name": "interestAmount",
          "type": "uint256"
        },
        {
          "internalType": "uint256",
          "name": "totalTimePeriod",
          "type": "uint256"
        },
        {
          "internalType": "uint256",
          "name": "maxTimePeriod",
          "type": "uint256"
        },
        {
          "internalType": "uint256",
          "name": "endLoanTimeStamp",
          "type": "uint256"
        },
        {
          "internalType": "enum LoanNFT.Status",
          "name": "status",
          "type": "uint8"
        }
      ],
      "stateMutability": "view",
      "type": "function"
    },
    {
      "inputs": [],
      "name": "creatorWallet",
      "outputs": [
        {
          "internalType": "address",
          "name": "",
          "type": "address"
        }
      ],
      "stateMutability": "view",
      "type": "function"
    },
    {
      "inputs": [],
      "name": "manager",
      "outputs": [
        {
          "internalType": "address",
          "name": "",
          "type": "address"
        }
      ],
      "stateMutability": "view",
      "type": "function"
    },
    {
      "inputs": [],
      "name": "owner",
      "outputs": [
        {
          "internalType": "address",
          "name": "",
          "type": "address"
        }
      ],
      "stateMutability": "view",
      "type": "function"
    },
    {
      "inputs": [],
      "name": "paused",
      "outputs": [
        {
          "internalType": "bool",
          "name": "",
          "type": "bool"
        }
      ],
      "stateMutability": "view",
      "type": "function"
    },
    {
      "inputs": [],
      "name": "renounceOwnership",
      "outputs": [],
      "stateMutability": "nonpayable",
      "type": "function"
    },
    {
      "inputs": [],
      "name": "totalLoan",
      "outputs": [
        {
          "internalType": "uint256",
          "name": "",
          "type": "uint256"
        }
      ],
      "stateMutability": "view",
      "type": "function"
    },
    {
      "inputs": [
        {
          "internalType": "address",
          "name": "newOwner",
          "type": "address"
        }
      ],
      "name": "transferOwnership",
      "outputs": [],
      "stateMutability": "nonpayable",
      "type": "function"
    },
    {
      "inputs": [
        {
          "internalType": "address",
          "name": "",
          "type": "address"
        },
        {
          "internalType": "address",
          "name": "",
          "type": "address"
        },
        {
          "internalType": "uint256",
          "name": "",
          "type": "uint256"
        },
        {
          "internalType": "bytes",
          "name": "",
          "type": "bytes"
        }
      ],
      "name": "onERC721Received",
      "outputs": [
        {
          "internalType": "bytes4",
          "name": "",
          "type": "bytes4"
        }
      ],
      "stateMutability": "nonpayable",
      "type": "function"
    },
    {
      "inputs": [],
      "name": "pauseLoans",
      "outputs": [],
      "stateMutability": "nonpayable",
      "type": "function"
    },
    {
      "inputs": [],
      "name": "unPauseLoans",
      "outputs": [],
      "stateMutability": "nonpayable",
      "type": "function"
    },
    {
      "inputs": [
        {
          "internalType": "address",
          "name": "smartContractAddressOfNFT",
          "type": "address"
        },
        {
          "internalType": "uint256",
          "name": "tokenIdNFT",
          "type": "uint256"
        },
        {
          "internalType": "uint256",
          "name": "loanAmount",
          "type": "uint256"
        },
        {
          "internalType": "uint256",
          "name": "interestAmount",
          "type": "uint256"
        },
        {
          "internalType": "uint256",
          "name": "totalTimePeriod",
          "type": "uint256"
        },
        {
          "internalType": "uint256",
          "name": "maxTimePeriod",
          "type": "uint256"
        }
      ],
      "name": "createLoan",
      "outputs": [],
      "stateMutability": "nonpayable",
      "type": "function"
    },
    {
      "inputs": [
        {
          "internalType": "uint256",
          "name": "loanID",
          "type": "uint256"
        }
      ],
      "name": "acceptLoan",
      "outputs": [],
      "stateMutability": "payable",
      "type": "function"
    },
    {
      "inputs": [
        {
          "internalType": "uint256",
          "name": "loanID",
          "type": "uint256"
        }
      ],
      "name": "extendLoan",
      "outputs": [],
      "stateMutability": "payable",
      "type": "function"
    },
    {
      "inputs": [
        {
          "internalType": "uint256",
          "name": "loanID",
          "type": "uint256"
        }
      ],
      "name": "endLoan",
      "outputs": [],
      "stateMutability": "payable",
      "type": "function"
    },
    {
      "inputs": [
        {
          "internalType": "uint256",
          "name": "loanID",
          "type": "uint256"
        }
      ],
      "name": "cancelLoan",
      "outputs": [],
      "stateMutability": "nonpayable",
      "type": "function"
    }
  ],
  "bytecode": "0x608060405234801561001057600080fd5b5061001a33610041565b6000805460ff60a01b19168155600180546001600160a01b03191633179055600255610091565b600080546001600160a01b038381166001600160a01b0319831681178455604051919092169283917f8be0079c531659141344cd1fd0a4f28419497f9722a3daafe3b4186f6b6457e09190a35050565b611979806100a06000396000f3fe6080604052600436106100f35760003560e01c80637ace2ac91161008a578063adfbe22f11610059578063adfbe22f1461031e578063bdbfa3de14610331578063f2fde38b14610351578063f9e7d3d11461037157600080fd5b80637ace2ac9146102b05780637cdc65f2146102c35780638da5cb5b146102eb578063908ef6461461030957600080fd5b80635c975abb116100c65780635c975abb146101c0578063634609c2146101ea578063715018a6146102885780637870860b1461029d57600080fd5b80631079f7af146100f8578063150b7a021461011a578063453b1a8b14610164578063481c6a7514610188575b600080fd5b34801561010457600080fd5b506101186101133660046115b8565b610386565b005b34801561012657600080fd5b50610146610135366004611604565b630a85bd0160e11b95945050505050565b6040516001600160e01b031990911681526020015b60405180910390f35b34801561017057600080fd5b5061017a60025481565b60405190815260200161015b565b34801561019457600080fd5b506001546101a8906001600160a01b031681565b6040516001600160a01b03909116815260200161015b565b3480156101cc57600080fd5b50600054600160a01b900460ff16604051901515815260200161015b565b3480156101f657600080fd5b506102716102053660046116a3565b600360208190526000918252604090912080546001820154600283015493830154600484015460058501546006860154600787015460088801546009890154600a9099015497996001600160a01b03978816999088169896909716969495939492939192909160ff168b565b60405161015b9b9a999897969594939291906116f4565b34801561029457600080fd5b506101186106e2565b6101186102ab3660046116a3565b610748565b6101186102be3660046116a3565b610b0f565b3480156102cf57600080fd5b506101a87321609292bd28e3edf76b6f52f34636c7974ddbb881565b3480156102f757600080fd5b506000546001600160a01b03166101a8565b34801561031557600080fd5b50610118610d74565b61011861032c3660046116a3565b610dd6565b34801561033d57600080fd5b5061011861034c3660046116a3565b61114c565b34801561035d57600080fd5b5061011861036c366004611765565b6112f5565b34801561037d57600080fd5b506101186113c0565b600054600160a01b900460ff16156103b95760405162461bcd60e51b81526004016103b090611782565b60405180910390fd5b6228de808211156104255760405162461bcd60e51b815260206004820152603060248201527f412073696e676c6520706572696f642063616e20686176652061206d6178696d60448201526f3ab69037b31037b7329036b7b73a341760811b60648201526084016103b0565b6213c6808111156104785760405162461bcd60e51b815260206004820181905260248201527f4d6178696d756d20696e74657265737420706572696f6473206172652031352e60448201526064016103b0565b600081116104d45760405162461bcd60e51b8152602060048201526024808201527f4d6178696d756d20696e74657265737420706572696f642063616e6e6f7420626044820152633290181760e11b60648201526084016103b0565b60405163020604bf60e21b815260048101869052869030906001600160a01b0383169063081812fc90602401602060405180830381865afa15801561051d573d6000803e3d6000fd5b505050506040513d601f19601f8201168201806040525081019061054191906117ac565b6001600160a01b0316146105a15760405162461bcd60e51b815260206004820152602160248201527f5472616e736665722068617320746f20626520617070726f76656420666972736044820152601d60fa1b60648201526084016103b0565b6002805460008181526003602081905260408083209384556001840180546001600160a01b0319908116909155848601805433908316811790915592850180549091166001600160a01b038e16179055600484018b9055600584018a9055600684018990556007840188905560088401879055600a8401805460ff191690559354935192937f925b6897faf23196e413dc45bb740fedf1824a20b4cf4613ba59563674a594f79361065a938b918b918b918b91906117c9565b60405180910390a161066f6002546001611422565b600255604051632142170760e11b8152336004820152306024820152604481018890526001600160a01b038316906342842e0e90606401600060405180830381600087803b1580156106c057600080fd5b505af11580156106d4573d6000803e3d6000fd5b505050505050505050505050565b6000546001600160a01b0316331461073c5760405162461bcd60e51b815260206004820181905260248201527f4f776e61626c653a2063616c6c6572206973206e6f7420746865206f776e657260448201526064016103b0565b6107466000611435565b565b80600254811061076a5760405162461bcd60e51b81526004016103b090611815565b60016000838152600360205260409020600a015460ff166004811115610792576107926116bc565b146107e95760405162461bcd60e51b815260206004820152602160248201527f537461747573206973206e6f742041435449564520746f20656e64206c6f616e6044820152601760f91b60648201526084016103b0565b6000828152600360205260409020600101546001600160a01b03163314801561082357506000828152600360205260409020600901544210155b8061084757506000828152600360205260409020600201546001600160a01b031633145b6108895760405162461bcd60e51b81526020600482015260136024820152722ab730b13632903a379032b732103637b0b71760691b60448201526064016103b0565b6000828152600360205260409020600201546001600160a01b031633141561099d57600082815260036020526040812060068101546005909101546108ce9190611858565b9050803410156109375760405162461bcd60e51b815260206004820152602e60248201527f546865207072696e636970616c20616d6f756e74206f6620746865206c6f616e60448201526d103bb0b9903737ba1039b2b73a1760911b60648201526084016103b0565b6000838152600360208190526040808320600a8101805460ff1916909317909255600182015460059092015490516001600160a01b03909216926108fc8215029290818181858888f19350505050158015610996573d6000803e3d6000fd5b50506109ba565b6000828152600360205260409020600a01805460ff191660041790555b60008281526003602081905260409182902090810154600491820154925163095ea7b360e01b8152339281019290925260248201929092526001600160a01b0390911690819063095ea7b390604401600060405180830381600087803b158015610a2357600080fd5b505af1158015610a37573d6000803e3d6000fd5b50505060008481526003602052604090819020600a015490517fd1b53ef63114c8cac2bee922296fb060d11155eb64963681a7aabb72e007dafe9250610a8491869160ff90911690611870565b60405180910390a16000838152600360205260409081902060049081015491516323b872dd60e01b8152309181019190915233602482015260448101919091526001600160a01b038216906323b872dd90606401600060405180830381600087803b158015610af257600080fd5b505af1158015610b06573d6000803e3d6000fd5b50505050505050565b806002548110610b315760405162461bcd60e51b81526004016103b090611815565b600054600160a01b900460ff1615610b5b5760405162461bcd60e51b81526004016103b090611782565b60016000838152600360205260409020600a015460ff166004811115610b8357610b836116bc565b14610bd05760405162461bcd60e51b815260206004820152601d60248201527f537461747573206973206e6f742041435449564520666f72206c6f616e00000060448201526064016103b0565b6000828152600360205260409020600201546001600160a01b03163314610c4b5760405162461bcd60e51b815260206004820152602960248201527f4f6e6c792074686520626f72726f7765722063616e2063616c6c207468697320604482015268333ab731ba34b7b71760b91b60648201526084016103b0565b600082815260036020526040902060080154610ccf5760405162461bcd60e51b815260206004820152603e60248201527f546865206d6178696d756d206e756d626572206f6620657874656e73696f6e7360448201527f20746f20746865206c6f616e20686173206265656e20726561636865642e000060648201526084016103b0565b600082815260036020526040902060080154610ced90600190611884565b600083815260036020526040902060088101919091556009810154600790910154610d189190611422565b6000838152600360205260409081902060098101839055600a015490517f0d6234124256d9700e959d406e96812610ca4988d16e73667dfb4125e030afb292610d6892869260ff9091169061189b565b60405180910390a15050565b6001546001600160a01b03163314610dce5760405162461bcd60e51b815260206004820152601b60248201527f4f6e6c79206d616e616765722063616e2063616c6c20746869732e000000000060448201526064016103b0565b610746611485565b806002548110610df85760405162461bcd60e51b81526004016103b090611815565b600054600160a01b900460ff1615610e225760405162461bcd60e51b81526004016103b090611782565b6000828152600360205260408120600a015460ff166004811115610e4857610e486116bc565b14610e955760405162461bcd60e51b815260206004820152601f60248201527f537461747573206973206e6f742050454e44494e4720666f72206c6f616e2e0060448201526064016103b0565b6000828152600360205260409020600201546001600160a01b0316331415610f255760405162461bcd60e51b815260206004820152603760248201527f496e76616c6964206f7065726174696f6e2e20596f752063616e6e6f7420756e60448201527f646572777269746520796f7572206f776e206c6f616e2e00000000000000000060648201526084016103b0565b60008281526003602052604090206005015434811115610fa55760405162461bcd60e51b815260206004820152603560248201527f4e6f7420656e6f7567682045746865722073656e7420746f2066756e6374696f60448201527437103a37903ab73232b93bb934ba32903637b0b71760591b60648201526084016103b0565b600083815260036020526040902060080154610fc390600190611884565b60008481526003602052604090206008810191909155600180820180546001600160a01b03191633179055600a8201805460ff191690911790556007015461100c904290611422565b6000848152600360205260408120600901919091556110386103e8611032846019611507565b90611513565b6040519091507321609292bd28e3edf76b6f52f34636c7974ddbb890819083156108fc029084906000818181858888f1935050505015801561107e573d6000803e3d6000fd5b50600085815260036020526040908190206001810154600582015460068301546009840154600a9094015494517fa35e18c70a4577d527316718a63088a4f54bf92e2d3bbb8953c52b791e23c4d1956110ec956001600160a01b03909516948c949392909160ff16906118be565b60405180910390a16000858152600360205260409020600201546001600160a01b03166108fc61111c8486611884565b6040518115909202916000818181858888f19350505050158015611144573d6000803e3d6000fd5b505050505050565b80600254811061116e5760405162461bcd60e51b81526004016103b090611815565b6000828152600360205260408120600a015460ff166004811115611194576111946116bc565b146111f65760405162461bcd60e51b815260206004820152602c60248201527f537461747573206973206e6f742050454e44494e4720746f2063616e63656c2060448201526b1b1bd85b881c995c5d595cdd60a21b60648201526084016103b0565b6000828152600360205260409020600201546001600160a01b0316331461121c57600080fd5b600082815260036020819052604091829020600a8101805460ff1916600217905590810154600491820154925163095ea7b360e01b8152339281019290925260248201929092526001600160a01b0390911690819063095ea7b390604401600060405180830381600087803b15801561129457600080fd5b505af11580156112a8573d6000803e3d6000fd5b50505060008481526003602052604090819020600a015490517f860d50b6aaf022f69dcc89c02fd544294c74672402625de97bd63aaf8564adce9250610a8491869160ff90911690611870565b6000546001600160a01b0316331461134f5760405162461bcd60e51b815260206004820181905260248201527f4f776e61626c653a2063616c6c6572206973206e6f7420746865206f776e657260448201526064016103b0565b6001600160a01b0381166113b45760405162461bcd60e51b815260206004820152602660248201527f4f776e61626c653a206e6577206f776e657220697320746865207a65726f206160448201526564647265737360d01b60648201526084016103b0565b6113bd81611435565b50565b6001546001600160a01b0316331461141a5760405162461bcd60e51b815260206004820152601b60248201527f4f6e6c79206d616e616765722063616e2063616c6c20746869732e000000000060448201526064016103b0565b61074661151f565b600061142e8284611858565b9392505050565b600080546001600160a01b038381166001600160a01b0319831681178455604051919092169283917f8be0079c531659141344cd1fd0a4f28419497f9722a3daafe3b4186f6b6457e09190a35050565b600054600160a01b900460ff16156114af5760405162461bcd60e51b81526004016103b090611782565b6000805460ff60a01b1916600160a01b1790557f62e78cea01bee320cd4e420270b5ea74000d11b0c9f74754ebdbfc544b05a2586114ea3390565b6040516001600160a01b03909116815260200160405180910390a1565b600061142e8284611902565b600061142e8284611921565b600054600160a01b900460ff1661156f5760405162461bcd60e51b815260206004820152601460248201527314185d5cd8589b194e881b9bdd081c185d5cd95960621b60448201526064016103b0565b6000805460ff60a01b191690557f5db9ee0a495bf2e6ff9c91a7834c1ba4fdd244a5e8aa4e537bd38aeae4b073aa336114ea565b6001600160a01b03811681146113bd57600080fd5b60008060008060008060c087890312156115d157600080fd5b86356115dc816115a3565b9860208801359850604088013597606081013597506080810135965060a00135945092505050565b60008060008060006080868803121561161c57600080fd5b8535611627816115a3565b94506020860135611637816115a3565b935060408601359250606086013567ffffffffffffffff8082111561165b57600080fd5b818801915088601f83011261166f57600080fd5b81358181111561167e57600080fd5b89602082850101111561169057600080fd5b9699959850939650602001949392505050565b6000602082840312156116b557600080fd5b5035919050565b634e487b7160e01b600052602160045260246000fd5b600581106116f057634e487b7160e01b600052602160045260246000fd5b9052565b8b81526001600160a01b038b811660208301528a81166040830152891660608201526080810188905260a0810187905260c0810186905260e081018590526101008101849052610120810183905261016081016117556101408301846116d2565b9c9b505050505050505050505050565b60006020828403121561177757600080fd5b813561142e816115a3565b60208082526010908201526f14185d5cd8589b194e881c185d5cd95960821b604082015260600190565b6000602082840312156117be57600080fd5b815161142e816115a3565b6001600160a01b03881681526020810187905260408101869052606081018590526080810184905260a0810183905260e0810161180960c08301846116d2565b98975050505050505050565b6020808252601390820152722637b0b71024a21034b99034b73b30b634b21760691b604082015260600190565b634e487b7160e01b600052601160045260246000fd5b6000821982111561186b5761186b611842565b500190565b8281526040810161142e60208301846116d2565b60008282101561189657611896611842565b500390565b83815260208101839052606081016118b660408301846116d2565b949350505050565b6001600160a01b03871681526020810186905260408101859052606081018490526080810183905260c081016118f760a08301846116d2565b979650505050505050565b600081600019048311821515161561191c5761191c611842565b500290565b60008261193e57634e487b7160e01b600052601260045260246000fd5b50049056fea2646970667358221220b557700bfd8eceb30823714087ad32a5a7452fc6e341af246d051856fe7cab8964736f6c634300080b0033",
  "immutableReferences": {},
  "source": "pragma solidity ^0.8.11;\n\nimport \"@openzeppelin/contracts/token/ERC721/IERC721.sol\";\nimport \"@openzeppelin/contracts/token/ERC721/IERC721Receiver.sol\";\nimport \"@openzeppelin/contracts/security/Pausable.sol\";\nimport {SafeMath} from \"@openzeppelin/contracts/utils/math/SafeMath.sol\";\nimport \"@openzeppelin/contracts/access/Ownable.sol\";\n\ncontract LoanNFT is IERC721Receiver, Ownable,Pausable {\n\n\n    // Internel Logic to remove abstract error\n    function onERC721Received(\n        address,\n        address,\n        uint256,\n        bytes calldata\n    ) external returns (bytes4) {\n        return IERC721Receiver.onERC721Received.selector;\n    }\n\n    using SafeMath for uint;\n\n    enum Status { PENDING, ACTIVE, CANCELLED, ENDED, DEFAULTED }\n\n    struct Loan {\n        uint loanID;\n        address payable lender;\n        address payable borrower;\n        address smartContractAddressOfNFT;\n        uint tokenIdNFT;\n        uint loanAmount;\n        uint interestAmount;\n        uint totalTimePeriod;\n        uint maxTimePeriod;\n        uint endLoanTimeStamp;\n        Status status;\n    }\n\n    event LoanDataOnCreate(address from , uint256 loanId, uint loanAmount, uint interestAmount, uint totalTime, uint extendTimePeriod, Status status);\n    event LoanDataOnAccept(address from , uint256 loanId, uint loanAmount, uint interestAmount, uint endLoanTimeStamp, Status status);\n    event LoanDataOnExtend(uint loanId, uint endLoanTimeStamp, Status status);\n    event LoanDataOnEnd(uint loanId, Status status);\n    event LoanDataOnCancel(uint loanId, Status status);\n\n    address public manager;\n\n    uint public totalLoan;\n    mapping(uint => Loan) public allLoanRequests;\n\n    address public constant creatorWallet = 0x21609292bd28e3EdF76b6f52F34636C7974DDBB8;\n\n    // Added modifiers to secure\n\n    modifier isValidLoanID(uint loanID) {\n        require(\n            loanID < totalLoan,\n            \"Loan ID is invalid.\"\n        );\n        _;\n    }\n\n    modifier onlyManager() { // Modifier\n        require(\n            msg.sender == manager,\n            \"Only manager can call this.\"\n        );\n        _;\n    }\n\n    constructor() {\n        manager = msg.sender;\n        totalLoan = 0;\n    }\n\n    // Saw this implementation to pause/unpause the functions\n\n\n    function pauseLoans() public onlyManager {\n        _pause();\n    }\n\n    function unPauseLoans() public onlyManager {\n        _unpause();\n    }\n\n    function createLoan(address smartContractAddressOfNFT,uint tokenIdNFT,uint loanAmount,uint interestAmount,uint totalTimePeriod,uint maxTimePeriod) public whenNotPaused {\n        require(totalTimePeriod <= 31 days, \"A single period can have a maximum of one month.\");\n        require(maxTimePeriod <= 15 days, \"Maximum interest periods are 15.\");\n        require(maxTimePeriod > 0 days, \"Maximum interest period cannot be 0.\");\n\n        IERC721 currentNFT = IERC721(smartContractAddressOfNFT);\n        require(currentNFT.getApproved(tokenIdNFT) == address(this), \"Transfer has to be approved first\");\n\n        Loan storage loanRequest =  allLoanRequests[totalLoan];\n        loanRequest.loanID = totalLoan;\n        loanRequest.lender = payable (address(0x0));\n        loanRequest.borrower = payable(msg.sender);\n        loanRequest.smartContractAddressOfNFT = smartContractAddressOfNFT;\n        loanRequest.tokenIdNFT = tokenIdNFT;\n        loanRequest.loanAmount = loanAmount;\n        loanRequest.interestAmount = interestAmount;\n        loanRequest.totalTimePeriod = totalTimePeriod;\n        loanRequest.maxTimePeriod = maxTimePeriod;\n        loanRequest.status = Status.PENDING;\n        emit LoanDataOnCreate(msg.sender, totalLoan,loanRequest.loanAmount,loanRequest.interestAmount,loanRequest.totalTimePeriod,loanRequest.maxTimePeriod,loanRequest.status);\n        totalLoan = SafeMath.add(totalLoan, 1);\n\n        currentNFT.safeTransferFrom(msg.sender, address(this), tokenIdNFT);\n        \n    }\n\n    function acceptLoan(uint loanID) payable public isValidLoanID(loanID) whenNotPaused {\n        require(allLoanRequests[loanID].status == Status.PENDING, \"Status is not PENDING for loan.\");\n        require(allLoanRequests[loanID].borrower != msg.sender, \"Invalid operation. You cannot underwrite your own loan.\");\n\n        uint sumForLoan = allLoanRequests[loanID].loanAmount;\n        require(msg.value >= sumForLoan, \"Not enough Ether sent to function to underwrite loan.\");\n\n        allLoanRequests[loanID].maxTimePeriod = allLoanRequests[loanID].maxTimePeriod - 1;\n\n        allLoanRequests[loanID].lender = payable(msg.sender);\n        allLoanRequests[loanID].status = Status.ACTIVE;\n        allLoanRequests[loanID].endLoanTimeStamp = SafeMath.add(block.timestamp, allLoanRequests[loanID].totalTimePeriod);\n\n        uint ourShare = sumForLoan.mul(25).div(1000); // taking 2.5% to pandora's acc\n        address payable pandoraAcc = payable(creatorWallet);\n        pandoraAcc.transfer(ourShare);\n        emit LoanDataOnAccept(allLoanRequests[loanID].lender, loanID, allLoanRequests[loanID].loanAmount, allLoanRequests[loanID].interestAmount, allLoanRequests[loanID].endLoanTimeStamp, allLoanRequests[loanID].status);\n        allLoanRequests[loanID].borrower.transfer(sumForLoan - ourShare);\n    }\n\n    function extendLoan(uint loanID) payable public isValidLoanID(loanID) whenNotPaused {\n        require(allLoanRequests[loanID].status == Status.ACTIVE, \"Status is not ACTIVE for loan\");\n        require(allLoanRequests[loanID].borrower == msg.sender, \"Only the borrower can call this function.\");\n        require(allLoanRequests[loanID].maxTimePeriod > 0, \"The maximum number of extensions to the loan has been reached.\");\n        // require(msg.value >= allLoanRequests[loanID].interestAmount, \"Not enough Ether sent to the function to extend loan.\");\n\n\n        allLoanRequests[loanID].maxTimePeriod = allLoanRequests[loanID].maxTimePeriod - 1;\n        allLoanRequests[loanID].endLoanTimeStamp = SafeMath.add(allLoanRequests[loanID].endLoanTimeStamp, allLoanRequests[loanID].totalTimePeriod);\n        emit LoanDataOnExtend(loanID, allLoanRequests[loanID].endLoanTimeStamp, allLoanRequests[loanID].status);\n\n        // allLoanRequests[loanID].lender.transfer(allLoanRequests[loanID].interestAmount);\n    }\n\n    function endLoan(uint loanID) payable public isValidLoanID(loanID) {\n        require(allLoanRequests[loanID].status == Status.ACTIVE, \"Status is not ACTIVE to end loan.\");\n        require((msg.sender == allLoanRequests[loanID].lender  && block.timestamp >= allLoanRequests[loanID].endLoanTimeStamp) || msg.sender == allLoanRequests[loanID].borrower,\n                \"Unable to end loan.\");\n\n        if (msg.sender == allLoanRequests[loanID].borrower) {\n            uint sum = allLoanRequests[loanID].loanAmount + allLoanRequests[loanID].interestAmount;\n            require(msg.value >= sum, \"The principal amount of the loan was not sent.\");\n            allLoanRequests[loanID].status = Status.ENDED;\n            allLoanRequests[loanID].lender.transfer(allLoanRequests[loanID].loanAmount);\n            \n        } else {\n            allLoanRequests[loanID].status = Status.DEFAULTED;\n        }\n\n        IERC721 currentNFT = IERC721(allLoanRequests[loanID].smartContractAddressOfNFT);\n        currentNFT.approve(msg.sender, allLoanRequests[loanID].tokenIdNFT);\n        emit LoanDataOnEnd(loanID, allLoanRequests[loanID].status);\n        currentNFT.transferFrom(address(this), msg.sender, allLoanRequests[loanID].tokenIdNFT);\n    }\n    function cancelLoan(uint loanID) public isValidLoanID(loanID) {\n        require(allLoanRequests[loanID].status == Status.PENDING, \"Status is not PENDING to cancel loan request\");\n        require(msg.sender == allLoanRequests[loanID].borrower);\n\n        allLoanRequests[loanID].status = Status.CANCELLED;\n\n        IERC721 currentNFT = IERC721(allLoanRequests[loanID].smartContractAddressOfNFT);\n        currentNFT.approve(msg.sender, allLoanRequests[loanID].tokenIdNFT);\n        emit LoanDataOnCancel(loanID, allLoanRequests[loanID].status);\n        currentNFT.transferFrom(address(this), msg.sender, allLoanRequests[loanID].tokenIdNFT);\n    }\n}",
  "sourcePath": "D:\\blockchain projects\\Tushar-workgroup-NFTloan\\contracts\\Loan.sol",
  "compiler": {
    "name": "solc",
    "version": "0.8.11+commit.d7f03943.Emscripten.clang"
  },
  "schemaVersion": "3.4.4",
  "updatedAt": "2022-03-13T01:53:26.610Z",
  "devdoc": {
    "kind": "dev",
    "methods": {
      "owner()": {
        "details": "Returns the address of the current owner."
      },
      "paused()": {
        "details": "Returns true if the contract is paused, and false otherwise."
      },
      "renounceOwnership()": {
        "details": "Leaves the contract without owner. It will not be possible to call `onlyOwner` functions anymore. Can only be called by the current owner. NOTE: Renouncing ownership will leave the contract without an owner, thereby removing any functionality that is only available to the owner."
      },
      "transferOwnership(address)": {
        "details": "Transfers ownership of the contract to a new account (`newOwner`). Can only be called by the current owner."
      }
    },
    "version": 1
  },
  "userdoc": {
    "kind": "user",
    "methods": {},
    "version": 1
  }
}