{
  "contractName": "LoanV2NFT",
  "abi": [
    {
      "inputs": [],
      "stateMutability": "nonpayable",
      "type": "constructor"
    },
    {
      "anonymous": false,
      "inputs": [],
      "name": "LoansUpdated",
      "type": "event"
    },
    {
      "anonymous": false,
      "inputs": [
        {
          "indexed": true,
          "internalType": "address",
          "name": "previousOwner",
          "type": "address"
        },
        {
          "indexed": true,
          "internalType": "address",
          "name": "newOwner",
          "type": "address"
        }
      ],
      "name": "OwnershipTransferred",
      "type": "event"
    },
    {
      "anonymous": false,
      "inputs": [
        {
          "indexed": false,
          "internalType": "address",
          "name": "account",
          "type": "address"
        }
      ],
      "name": "Paused",
      "type": "event"
    },
    {
      "anonymous": false,
      "inputs": [
        {
          "indexed": false,
          "internalType": "address",
          "name": "account",
          "type": "address"
        }
      ],
      "name": "Unpaused",
      "type": "event"
    },
    {
      "inputs": [
        {
          "internalType": "uint256",
          "name": "",
          "type": "uint256"
        }
      ],
      "name": "allLoanRequests",
      "outputs": [
        {
          "internalType": "uint256",
          "name": "loanID",
          "type": "uint256"
        },
        {
          "internalType": "address payable",
          "name": "lender",
          "type": "address"
        },
        {
          "internalType": "address payable",
          "name": "borrower",
          "type": "address"
        },
        {
          "internalType": "address",
          "name": "smartContractAddressOfNFT",
          "type": "address"
        },
        {
          "internalType": "uint256",
          "name": "tokenIdNFT",
          "type": "uint256"
        },
        {
          "internalType": "uint256",
          "name": "loanAmount",
          "type": "uint256"
        },
        {
          "internalType": "uint256",
          "name": "interestAmount",
          "type": "uint256"
        },
        {
          "internalType": "uint256",
          "name": "singlePeriodTime",
          "type": "uint256"
        },
        {
          "internalType": "uint256",
          "name": "maximumInterestPeriods",
          "type": "uint256"
        },
        {
          "internalType": "uint256",
          "name": "endLoanTimeStamp",
          "type": "uint256"
        },
        {
          "internalType": "enum LoanV2NFT.Status",
          "name": "status",
          "type": "uint8"
        }
      ],
      "stateMutability": "view",
      "type": "function"
    },
    {
      "inputs": [],
      "name": "manager",
      "outputs": [
        {
          "internalType": "address",
          "name": "",
          "type": "address"
        }
      ],
      "stateMutability": "view",
      "type": "function"
    },
    {
      "inputs": [],
      "name": "owner",
      "outputs": [
        {
          "internalType": "address",
          "name": "",
          "type": "address"
        }
      ],
      "stateMutability": "view",
      "type": "function"
    },
    {
      "inputs": [],
      "name": "paused",
      "outputs": [
        {
          "internalType": "bool",
          "name": "",
          "type": "bool"
        }
      ],
      "stateMutability": "view",
      "type": "function"
    },
    {
      "inputs": [],
      "name": "renounceOwnership",
      "outputs": [],
      "stateMutability": "nonpayable",
      "type": "function"
    },
    {
      "inputs": [],
      "name": "totalLoanRequests",
      "outputs": [
        {
          "internalType": "uint256",
          "name": "",
          "type": "uint256"
        }
      ],
      "stateMutability": "view",
      "type": "function"
    },
    {
      "inputs": [
        {
          "internalType": "address",
          "name": "newOwner",
          "type": "address"
        }
      ],
      "name": "transferOwnership",
      "outputs": [],
      "stateMutability": "nonpayable",
      "type": "function"
    },
    {
      "inputs": [],
      "name": "pauseLoans",
      "outputs": [],
      "stateMutability": "nonpayable",
      "type": "function"
    },
    {
      "inputs": [],
      "name": "unPauseLoans",
      "outputs": [],
      "stateMutability": "nonpayable",
      "type": "function"
    },
    {
      "inputs": [
        {
          "internalType": "address",
          "name": "smartContractAddressOfNFT",
          "type": "address"
        },
        {
          "internalType": "uint256",
          "name": "tokenIdNFT",
          "type": "uint256"
        },
        {
          "internalType": "uint256",
          "name": "loanAmount",
          "type": "uint256"
        },
        {
          "internalType": "uint256",
          "name": "interestAmount",
          "type": "uint256"
        },
        {
          "internalType": "uint256",
          "name": "singlePeriodTime",
          "type": "uint256"
        },
        {
          "internalType": "uint256",
          "name": "maximumInterestPeriods",
          "type": "uint256"
        }
      ],
      "name": "createLoanRequest",
      "outputs": [],
      "stateMutability": "nonpayable",
      "type": "function"
    },
    {
      "inputs": [
        {
          "internalType": "uint256",
          "name": "loanID",
          "type": "uint256"
        }
      ],
      "name": "acceptLoanRequest",
      "outputs": [],
      "stateMutability": "payable",
      "type": "function"
    },
    {
      "inputs": [
        {
          "internalType": "uint256",
          "name": "loanID",
          "type": "uint256"
        }
      ],
      "name": "extendLoanRequest",
      "outputs": [],
      "stateMutability": "payable",
      "type": "function"
    },
    {
      "inputs": [
        {
          "internalType": "uint256",
          "name": "loanID",
          "type": "uint256"
        }
      ],
      "name": "endLoanRequest",
      "outputs": [],
      "stateMutability": "payable",
      "type": "function"
    },
    {
      "inputs": [
        {
          "internalType": "uint256",
          "name": "loanID",
          "type": "uint256"
        }
      ],
      "name": "cancelLoanRequest",
      "outputs": [],
      "stateMutability": "nonpayable",
      "type": "function"
    },
    {
      "inputs": [
        {
          "internalType": "address",
          "name": "",
          "type": "address"
        },
        {
          "internalType": "address",
          "name": "",
          "type": "address"
        },
        {
          "internalType": "uint256",
          "name": "",
          "type": "uint256"
        },
        {
          "internalType": "bytes",
          "name": "",
          "type": "bytes"
        }
      ],
      "name": "onERC721Received",
      "outputs": [
        {
          "internalType": "bytes4",
          "name": "",
          "type": "bytes4"
        }
      ],
      "stateMutability": "nonpayable",
      "type": "function"
    }
  ],
  "bytecode": "0x608060405234801561001057600080fd5b506000805460ff1916905561002433610040565b600180546001600160a01b031916331790556000600255610099565b600080546001600160a01b03838116610100818102610100600160a81b0319851617855560405193049190911692909183917f8be0079c531659141344cd1fd0a4f28419497f9722a3daafe3b4186f6b6457e091a35050565b611804806100a86000396000f3fe6080604052600436106100e85760003560e01c8063715018a61161008a578063908ef64611610059578063908ef646146102f4578063c16f547e14610309578063f2fde38b1461031c578063f9e7d3d11461033c57600080fd5b8063715018a6146102855780637331978f1461029a578063765d9491146102ad5780638da5cb5b146102d157600080fd5b8063481c6a75116100c6578063481c6a751461016c5780635a680367146101a45780635c975abb146101c4578063634609c2146101e757600080fd5b80630118a77a146100ed578063012751c914610102578063150b7a0214610122575b600080fd5b6101006100fb36600461149d565b610351565b005b34801561010e57600080fd5b5061010061011d3660046114cb565b61064b565b34801561012e57600080fd5b5061014e61013d366004611517565b630a85bd0160e11b95945050505050565b6040516001600160e01b031990911681526020015b60405180910390f35b34801561017857600080fd5b5060015461018c906001600160a01b031681565b6040516001600160a01b039091168152602001610163565b3480156101b057600080fd5b506101006101bf36600461149d565b6109e3565b3480156101d057600080fd5b5060005460ff166040519015158152602001610163565b3480156101f357600080fd5b5061026e61020236600461149d565b600360208190526000918252604090912080546001820154600283015493830154600484015460058501546006860154600787015460088801546009890154600a9099015497996001600160a01b03978816999088169896909716969495939492939192909160ff168b565b6040516101639b9a999897969594939291906115cc565b34801561029157600080fd5b50610100610bf3565b6101006102a836600461149d565b610c5f565b3480156102b957600080fd5b506102c360025481565b604051908152602001610163565b3480156102dd57600080fd5b5060005461010090046001600160a01b031661018c565b34801561030057600080fd5b50610100610f16565b61010061031736600461149d565b610f48565b34801561032857600080fd5b50610100610337366004611654565b611227565b34801561034857600080fd5b506101006112f8565b80600254811061037c5760405162461bcd60e51b815260040161037390611671565b60405180910390fd5b60005460ff161561039f5760405162461bcd60e51b81526004016103739061169e565b60016000838152600360205260409020600a015460ff1660048111156103c7576103c76115b6565b146104145760405162461bcd60e51b815260206004820152601d60248201527f537461747573206973206e6f742041435449564520666f72206c6f616e0000006044820152606401610373565b6000828152600360205260409020600201546001600160a01b0316331461048f5760405162461bcd60e51b815260206004820152602960248201527f4f6e6c792074686520626f72726f7765722063616e2063616c6c207468697320604482015268333ab731ba34b7b71760b91b6064820152608401610373565b6000828152600360205260409020600801546105135760405162461bcd60e51b815260206004820152603e60248201527f546865206d6178696d756d206e756d626572206f6620657874656e73696f6e7360448201527f20746f20746865206c6f616e20686173206265656e20726561636865642e00006064820152608401610373565b6000828152600360205260409020600601543410156105925760405162461bcd60e51b815260206004820152603560248201527f4e6f7420656e6f7567682045746865722073656e7420746f207468652066756e60448201527431ba34b7b7103a379032bc3a32b732103637b0b71760591b6064820152608401610373565b6000828152600360205260409020600801546105b0906001906116de565b6000838152600360205260409020600881019190915560098101546007909101546105db919061132a565b6000838152600360205260408082206009810193909355600183015460069093015490516001600160a01b039093169281156108fc0292818181858888f1935050505015801561062f573d6000803e3d6000fd5b506040516000805160206117af83398151915290600090a15050565b60005460ff161561066e5760405162461bcd60e51b81526004016103739061169e565b6228de808211156106da5760405162461bcd60e51b815260206004820152603060248201527f412073696e676c6520706572696f642063616e20686176652061206d6178696d60448201526f3ab69037b31037b7329036b7b73a341760811b6064820152608401610373565b6106e58460026116f5565b83106107525760405162461bcd60e51b815260206004820152603660248201527f496e746572657374206d757374206265206c6f776572207468616e2032202a20604482015275383934b731b4b830b61037b3103a3432903637b0b71760511b6064820152608401610373565b600c8111156107a35760405162461bcd60e51b815260206004820181905260248201527f4d6178696d756d20696e74657265737420706572696f6473206172652031322e6044820152606401610373565b600081116107ff5760405162461bcd60e51b8152602060048201526024808201527f4d6178696d756d20696e74657265737420706572696f642063616e6e6f7420626044820152633290181760e11b6064820152608401610373565b60405163020604bf60e21b815260048101869052869030906001600160a01b0383169063081812fc90602401602060405180830381865afa158015610848573d6000803e3d6000fd5b505050506040513d601f19601f8201168201806040525081019061086c9190611714565b6001600160a01b0316146108cc5760405162461bcd60e51b815260206004820152602160248201527f5472616e736665722068617320746f20626520617070726f76656420666972736044820152601d60fa1b6064820152608401610373565b600280546000818152600360208190526040909120918255600180830180546001600160a01b031990811690915583850180543390831617905591830180549092166001600160a01b038c16179091556004820189905560058201889055600682018790556007820186905560088201859055600a8201805460ff1916905591549091610959919061132a565b600255604051632142170760e11b8152336004820152306024820152604481018890526001600160a01b038316906342842e0e90606401600060405180830381600087803b1580156109aa57600080fd5b505af11580156109be573d6000803e3d6000fd5b50506040516000805160206117af833981519152925060009150a15050505050505050565b806002548110610a055760405162461bcd60e51b815260040161037390611671565b6000828152600360205260408120600a015460ff166004811115610a2b57610a2b6115b6565b14610a8d5760405162461bcd60e51b815260206004820152602c60248201527f537461747573206973206e6f742050454e44494e4720746f2063616e63656c2060448201526b1b1bd85b881c995c5d595cdd60a21b6064820152608401610373565b6000828152600360205260409020600201546001600160a01b03163314610ab357600080fd5b6000828152600360205260409020600a0180546002919060ff19166001835b021790555060008281526003602081905260409182902090810154600491820154925163095ea7b360e01b8152339281019290925260248201929092526001600160a01b0390911690819063095ea7b3906044015b600060405180830381600087803b158015610b4157600080fd5b505af1158015610b55573d6000803e3d6000fd5b5050506000848152600360205260409081902060049081015491516323b872dd60e01b8152309181019190915233602482015260448101919091526001600160a01b03831691506323b872dd90606401600060405180830381600087803b158015610bbf57600080fd5b505af1158015610bd3573d6000803e3d6000fd5b50506040516000805160206117af833981519152925060009150a1505050565b6000546001600160a01b03610100909104163314610c535760405162461bcd60e51b815260206004820181905260248201527f4f776e61626c653a2063616c6c6572206973206e6f7420746865206f776e65726044820152606401610373565b610c5d600061133d565b565b806002548110610c815760405162461bcd60e51b815260040161037390611671565b60016000838152600360205260409020600a015460ff166004811115610ca957610ca96115b6565b14610d005760405162461bcd60e51b815260206004820152602160248201527f537461747573206973206e6f742041435449564520746f20656e64206c6f616e6044820152601760f91b6064820152608401610373565b6000828152600360205260409020600101546001600160a01b031633148015610d3a57506000828152600360205260409020600901544210155b80610d5e57506000828152600360205260409020600201546001600160a01b031633145b610da05760405162461bcd60e51b81526020600482015260136024820152722ab730b13632903a379032b732103637b0b71760691b6044820152606401610373565b6000828152600360205260409020600201546001600160a01b0316331415610e9f57600082815260036020526040902060050154341015610e3a5760405162461bcd60e51b815260206004820152602e60248201527f546865207072696e636970616c20616d6f756e74206f6620746865206c6f616e60448201526d103bb0b9903737ba1039b2b73a1760911b6064820152608401610373565b6000828152600360208190526040808320600a8101805460ff1916909317909255600182015460059092015490516001600160a01b03909216926108fc8215029290818181858888f19350505050158015610e99573d6000803e3d6000fd5b50610ec2565b6000828152600360205260409020600a0180546004919060ff1916600183610ad2565b60008281526003602081905260409182902090810154600491820154925163095ea7b360e01b8152339281019290925260248201929092526001600160a01b0390911690819063095ea7b390604401610b27565b6001546001600160a01b03163314610f405760405162461bcd60e51b815260040161037390611731565b610c5d611396565b806002548110610f6a5760405162461bcd60e51b815260040161037390611671565b60005460ff1615610f8d5760405162461bcd60e51b81526004016103739061169e565b6000828152600360205260408120600a015460ff166004811115610fb357610fb36115b6565b146110005760405162461bcd60e51b815260206004820152601f60248201527f537461747573206973206e6f742050454e44494e4720666f72206c6f616e2e006044820152606401610373565b6000828152600360205260409020600201546001600160a01b03163314156110905760405162461bcd60e51b815260206004820152603760248201527f496e76616c6964206f7065726174696f6e2e20596f752063616e6e6f7420756e60448201527f646572777269746520796f7572206f776e206c6f616e2e0000000000000000006064820152608401610373565b600082815260036020526040812060068101546005909101546110b391906116de565b9050803410156111235760405162461bcd60e51b815260206004820152603560248201527f4e6f7420656e6f7567682045746865722073656e7420746f2066756e6374696f60448201527437103a37903ab73232b93bb934ba32903637b0b71760591b6064820152608401610373565b600083815260036020526040902060080154611141906001906116de565b60008481526003602052604090206008810191909155600180820180546001600160a01b03191633179055600a8201805460ff191690911790556007015461118a90429061132a565b6000848152600360205260408120600901919091556111b66103e86111b084601961140b565b90611417565b6000858152600360205260409020600201549091506001600160a01b03166108fc6111e183856116de565b6040518115909202916000818181858888f19350505050158015611209573d6000803e3d6000fd5b506040516000805160206117af83398151915290600090a150505050565b6000546001600160a01b036101009091041633146112875760405162461bcd60e51b815260206004820181905260248201527f4f776e61626c653a2063616c6c6572206973206e6f7420746865206f776e65726044820152606401610373565b6001600160a01b0381166112ec5760405162461bcd60e51b815260206004820152602660248201527f4f776e61626c653a206e6577206f776e657220697320746865207a65726f206160448201526564647265737360d01b6064820152608401610373565b6112f58161133d565b50565b6001546001600160a01b031633146113225760405162461bcd60e51b815260040161037390611731565b610c5d611423565b60006113368284611774565b9392505050565b600080546001600160a01b03838116610100818102610100600160a81b0319851617855560405193049190911692909183917f8be0079c531659141344cd1fd0a4f28419497f9722a3daafe3b4186f6b6457e091a35050565b60005460ff16156113b95760405162461bcd60e51b81526004016103739061169e565b6000805460ff191660011790557f62e78cea01bee320cd4e420270b5ea74000d11b0c9f74754ebdbfc544b05a2586113ee3390565b6040516001600160a01b03909116815260200160405180910390a1565b600061133682846116f5565b6000611336828461178c565b60005460ff1661146c5760405162461bcd60e51b815260206004820152601460248201527314185d5cd8589b194e881b9bdd081c185d5cd95960621b6044820152606401610373565b6000805460ff191690557f5db9ee0a495bf2e6ff9c91a7834c1ba4fdd244a5e8aa4e537bd38aeae4b073aa336113ee565b6000602082840312156114af57600080fd5b5035919050565b6001600160a01b03811681146112f557600080fd5b60008060008060008060c087890312156114e457600080fd5b86356114ef816114b6565b9860208801359850604088013597606081013597506080810135965060a00135945092505050565b60008060008060006080868803121561152f57600080fd5b853561153a816114b6565b9450602086013561154a816114b6565b935060408601359250606086013567ffffffffffffffff8082111561156e57600080fd5b818801915088601f83011261158257600080fd5b81358181111561159157600080fd5b8960208285010111156115a357600080fd5b9699959850939650602001949392505050565b634e487b7160e01b600052602160045260246000fd5b8b81526001600160a01b038b811660208301528a81166040830152891660608201526080810188905260a0810187905260c0810186905260e081018590526101008101849052610120810183905261016081016005831061163d57634e487b7160e01b600052602160045260246000fd5b826101408301529c9b505050505050505050505050565b60006020828403121561166657600080fd5b8135611336816114b6565b6020808252601390820152722637b0b71024a21034b99034b73b30b634b21760691b604082015260600190565b60208082526010908201526f14185d5cd8589b194e881c185d5cd95960821b604082015260600190565b634e487b7160e01b600052601160045260246000fd5b6000828210156116f0576116f06116c8565b500390565b600081600019048311821515161561170f5761170f6116c8565b500290565b60006020828403121561172657600080fd5b8151611336816114b6565b60208082526023908201527f4f6e6c79206c656173696e67206d616e616765722063616e2063616c6c20746860408201526234b99760e91b606082015260800190565b60008219821115611787576117876116c8565b500190565b6000826117a957634e487b7160e01b600052601260045260246000fd5b50049056fe01163e919b1fd75968a143d56990c801b68ce928c77db2aaa2ee00c1561b3768a2646970667358221220fdff1870b3315286827f35001f02187b26ea70eeb7514ab2c1b62c3c41bd12c264736f6c634300080b0033",
  "immutableReferences": {},
  "source": "//Taken from different OpenSource Project\n\npragma solidity ^0.8.11;\n\nimport \"@openzeppelin/contracts/token/ERC721/IERC721.sol\";\nimport \"@openzeppelin/contracts/token/ERC721/IERC721Receiver.sol\";\nimport \"@openzeppelin/contracts/security/Pausable.sol\";\nimport {SafeMath} from \"@openzeppelin/contracts/utils/math/SafeMath.sol\";\nimport \"@openzeppelin/contracts/access/Ownable.sol\";\n\n\ncontract LoanV2NFT is IERC721Receiver, Pausable, Ownable {\n\n    event LoansUpdated();\n\n    using SafeMath for uint;\n\n    enum Status { PENDING, ACTIVE, CANCELLED, ENDED, DEFAULTED }\n\n    struct LoanRequest {\n        uint loanID;\n        address payable lender;\n        address payable borrower;\n        address smartContractAddressOfNFT;\n        uint tokenIdNFT;\n        uint loanAmount;\n        uint interestAmount;\n        uint singlePeriodTime;\n        uint maximumInterestPeriods;\n        uint endLoanTimeStamp;\n        Status status;\n    }\n\n    address public manager;\n\n    uint public totalLoanRequests;\n\n\n    mapping(uint => LoanRequest) public allLoanRequests;\n\n    modifier isValidLoanID(uint loanID) {\n        require(\n            loanID < totalLoanRequests,\n            \"Loan ID is invalid.\"\n        );\n        _;\n    }\n\n    modifier onlyManager() { // Modifier\n        require(\n            msg.sender == manager,\n            \"Only leasing manager can call this.\"\n        );\n        _;\n    }\n\n    constructor() {\n        manager = msg.sender;\n        totalLoanRequests = 0;\n    }\n\n    function pauseLoans() public onlyManager {\n        _pause();\n    }\n\n    function unPauseLoans() public onlyManager {\n        _unpause();\n    }\n\n    function createLoanRequest(address smartContractAddressOfNFT,\n                                uint tokenIdNFT,\n                                uint loanAmount,\n                                uint interestAmount,\n                                uint singlePeriodTime,\n                                uint maximumInterestPeriods) public whenNotPaused {\n        require(singlePeriodTime <= 31 days, \"A single period can have a maximum of one month.\");\n        require(interestAmount < 2*loanAmount, \"Interest must be lower than 2 * principal of the loan.\");\n        require(maximumInterestPeriods <= 12, \"Maximum interest periods are 12.\");\n        require(maximumInterestPeriods > 0, \"Maximum interest period cannot be 0.\");\n\n        IERC721 currentNFT = IERC721(smartContractAddressOfNFT);\n        require(currentNFT.getApproved(tokenIdNFT) == address(this), \"Transfer has to be approved first\");\n\n        LoanRequest storage loanRequest =  allLoanRequests[totalLoanRequests];\n        loanRequest.loanID = totalLoanRequests;\n        loanRequest.lender = payable (address(0x0));\n        loanRequest.borrower = payable(msg.sender);\n        loanRequest.smartContractAddressOfNFT = smartContractAddressOfNFT;\n        loanRequest.tokenIdNFT = tokenIdNFT;\n        loanRequest.loanAmount = loanAmount;\n        loanRequest.interestAmount = interestAmount;\n        loanRequest.singlePeriodTime = singlePeriodTime;\n        loanRequest.maximumInterestPeriods = maximumInterestPeriods;\n        loanRequest.status = Status.PENDING;\n        totalLoanRequests = SafeMath.add(totalLoanRequests, 1);\n\n        currentNFT.safeTransferFrom(msg.sender, address(this), tokenIdNFT);\n        emit LoansUpdated();\n    }\n\n    function acceptLoanRequest(uint loanID) payable public isValidLoanID(loanID) whenNotPaused {\n        require(allLoanRequests[loanID].status == Status.PENDING, \"Status is not PENDING for loan.\");\n        require(allLoanRequests[loanID].borrower != msg.sender, \"Invalid operation. You cannot underwrite your own loan.\");\n\n        uint sumForLoan = allLoanRequests[loanID].loanAmount - allLoanRequests[loanID].interestAmount;\n        require(msg.value >= sumForLoan, \"Not enough Ether sent to function to underwrite loan.\");\n\n        allLoanRequests[loanID].maximumInterestPeriods = allLoanRequests[loanID].maximumInterestPeriods - 1;\n\n        allLoanRequests[loanID].lender = payable(msg.sender);\n        allLoanRequests[loanID].status = Status.ACTIVE;\n        allLoanRequests[loanID].endLoanTimeStamp = SafeMath.add(block.timestamp, allLoanRequests[loanID].singlePeriodTime);\n\n\n        uint ourSHARE = sumForLoan.mul(25).div(1000);\n        allLoanRequests[loanID].borrower.transfer(sumForLoan - ourSHARE);\n        emit LoansUpdated();\n\n \n    }\n\n    function extendLoanRequest(uint loanID) payable public isValidLoanID(loanID) whenNotPaused {\n        require(allLoanRequests[loanID].status == Status.ACTIVE, \"Status is not ACTIVE for loan\");\n        require(allLoanRequests[loanID].borrower == msg.sender, \"Only the borrower can call this function.\");\n        require(allLoanRequests[loanID].maximumInterestPeriods > 0, \"The maximum number of extensions to the loan has been reached.\");\n        require(msg.value >= allLoanRequests[loanID].interestAmount, \"Not enough Ether sent to the function to extend loan.\");\n\n\n        allLoanRequests[loanID].maximumInterestPeriods = allLoanRequests[loanID].maximumInterestPeriods - 1;\n        allLoanRequests[loanID].endLoanTimeStamp = SafeMath.add(allLoanRequests[loanID].endLoanTimeStamp, allLoanRequests[loanID].singlePeriodTime);\n\n        allLoanRequests[loanID].lender.transfer(allLoanRequests[loanID].interestAmount);\n        emit LoansUpdated();\n    }\n\n    function endLoanRequest(uint loanID) payable public isValidLoanID(loanID) {\n        require(allLoanRequests[loanID].status == Status.ACTIVE, \"Status is not ACTIVE to end loan.\");\n        require((msg.sender == allLoanRequests[loanID].lender  &&\n                block.timestamp >= allLoanRequests[loanID].endLoanTimeStamp) || msg.sender == allLoanRequests[loanID].borrower,\n                \"Unable to end loan.\");\n\n        if (msg.sender == allLoanRequests[loanID].borrower) {\n            require(msg.value >= allLoanRequests[loanID].loanAmount, \"The principal amount of the loan was not sent.\");\n            allLoanRequests[loanID].status = Status.ENDED;\n            allLoanRequests[loanID].lender.transfer(allLoanRequests[loanID].loanAmount);\n            \n        } else {\n            allLoanRequests[loanID].status = Status.DEFAULTED;\n        }\n\n        \n        IERC721 currentNFT = IERC721(allLoanRequests[loanID].smartContractAddressOfNFT);\n        currentNFT.approve(msg.sender, allLoanRequests[loanID].tokenIdNFT);\n        currentNFT.transferFrom(address(this), msg.sender, allLoanRequests[loanID].tokenIdNFT);\n        emit LoansUpdated();\n    }\n\n    function cancelLoanRequest(uint loanID) public isValidLoanID(loanID) {\n        require(allLoanRequests[loanID].status == Status.PENDING, \"Status is not PENDING to cancel loan request\");\n        require(msg.sender == allLoanRequests[loanID].borrower);\n\n        allLoanRequests[loanID].status = Status.CANCELLED;\n\n        IERC721 currentNFT = IERC721(allLoanRequests[loanID].smartContractAddressOfNFT);\n        currentNFT.approve(msg.sender, allLoanRequests[loanID].tokenIdNFT);\n        currentNFT.transferFrom(address(this), msg.sender, allLoanRequests[loanID].tokenIdNFT);\n        emit LoansUpdated();\n    }\n\n    function onERC721Received(\n        address,\n        address,\n        uint256,\n        bytes calldata\n    ) external returns (bytes4) {\n        return IERC721Receiver.onERC721Received.selector;\n    }\n}",
  "sourcePath": "D:\\blockchain projects\\Tushar-workgroup-NFTloan\\contracts\\LoanV2.sol",
  "compiler": {
    "name": "solc",
    "version": "0.8.11+commit.d7f03943.Emscripten.clang"
  },
  "schemaVersion": "3.4.4",
  "updatedAt": "2022-03-13T01:53:26.648Z",
  "devdoc": {
    "kind": "dev",
    "methods": {
      "owner()": {
        "details": "Returns the address of the current owner."
      },
      "paused()": {
        "details": "Returns true if the contract is paused, and false otherwise."
      },
      "renounceOwnership()": {
        "details": "Leaves the contract without owner. It will not be possible to call `onlyOwner` functions anymore. Can only be called by the current owner. NOTE: Renouncing ownership will leave the contract without an owner, thereby removing any functionality that is only available to the owner."
      },
      "transferOwnership(address)": {
        "details": "Transfers ownership of the contract to a new account (`newOwner`). Can only be called by the current owner."
      }
    },
    "version": 1
  },
  "userdoc": {
    "kind": "user",
    "methods": {},
    "version": 1
  }
}